{
  "_format": "hh-sol-artifact-1",
  "contractName": "ACL",
  "sourceName": "contracts/PalmNFT.sol",
  "abi": [
    {
      "inputs": [],
      "name": "AccessControlBadConfirmation",
      "type": "error"
    },
    {
      "inputs": [
        {
          "internalType": "address",
          "name": "account",
          "type": "address"
        },
        {
          "internalType": "bytes32",
          "name": "neededRole",
          "type": "bytes32"
        }
      ],
      "name": "AccessControlUnauthorizedAccount",
      "type": "error"
    },
    {
      "anonymous": false,
      "inputs": [
        {
          "indexed": true,
          "internalType": "bytes32",
          "name": "role",
          "type": "bytes32"
        },
        {
          "indexed": true,
          "internalType": "bytes32",
          "name": "previousAdminRole",
          "type": "bytes32"
        },
        {
          "indexed": true,
          "internalType": "bytes32",
          "name": "newAdminRole",
          "type": "bytes32"
        }
      ],
      "name": "RoleAdminChanged",
      "type": "event"
    },
    {
      "anonymous": false,
      "inputs": [
        {
          "indexed": true,
          "internalType": "bytes32",
          "name": "role",
          "type": "bytes32"
        },
        {
          "indexed": true,
          "internalType": "address",
          "name": "account",
          "type": "address"
        },
        {
          "indexed": true,
          "internalType": "address",
          "name": "sender",
          "type": "address"
        }
      ],
      "name": "RoleGranted",
      "type": "event"
    },
    {
      "anonymous": false,
      "inputs": [
        {
          "indexed": true,
          "internalType": "bytes32",
          "name": "role",
          "type": "bytes32"
        },
        {
          "indexed": true,
          "internalType": "address",
          "name": "account",
          "type": "address"
        },
        {
          "indexed": true,
          "internalType": "address",
          "name": "sender",
          "type": "address"
        }
      ],
      "name": "RoleRevoked",
      "type": "event"
    },
    {
      "inputs": [],
      "name": "BURNER_ROLE",
      "outputs": [
        {
          "internalType": "bytes32",
          "name": "",
          "type": "bytes32"
        }
      ],
      "stateMutability": "view",
      "type": "function"
    },
    {
      "inputs": [],
      "name": "DEFAULT_ADMIN_ROLE",
      "outputs": [
        {
          "internalType": "bytes32",
          "name": "",
          "type": "bytes32"
        }
      ],
      "stateMutability": "view",
      "type": "function"
    },
    {
      "inputs": [],
      "name": "MINTER_ROLE",
      "outputs": [
        {
          "internalType": "bytes32",
          "name": "",
          "type": "bytes32"
        }
      ],
      "stateMutability": "view",
      "type": "function"
    },
    {
      "inputs": [
        {
          "internalType": "bytes32",
          "name": "role",
          "type": "bytes32"
        }
      ],
      "name": "getRoleAdmin",
      "outputs": [
        {
          "internalType": "bytes32",
          "name": "",
          "type": "bytes32"
        }
      ],
      "stateMutability": "view",
      "type": "function"
    },
    {
      "inputs": [
        {
          "internalType": "bytes32",
          "name": "role",
          "type": "bytes32"
        },
        {
          "internalType": "uint256",
          "name": "index",
          "type": "uint256"
        }
      ],
      "name": "getRoleMember",
      "outputs": [
        {
          "internalType": "address",
          "name": "",
          "type": "address"
        }
      ],
      "stateMutability": "view",
      "type": "function"
    },
    {
      "inputs": [
        {
          "internalType": "bytes32",
          "name": "role",
          "type": "bytes32"
        }
      ],
      "name": "getRoleMemberCount",
      "outputs": [
        {
          "internalType": "uint256",
          "name": "",
          "type": "uint256"
        }
      ],
      "stateMutability": "view",
      "type": "function"
    },
    {
      "inputs": [
        {
          "internalType": "address",
          "name": "admin",
          "type": "address"
        }
      ],
      "name": "grantAdmin",
      "outputs": [],
      "stateMutability": "nonpayable",
      "type": "function"
    },
    {
      "inputs": [
        {
          "internalType": "address",
          "name": "burner",
          "type": "address"
        }
      ],
      "name": "grantBurner",
      "outputs": [],
      "stateMutability": "nonpayable",
      "type": "function"
    },
    {
      "inputs": [
        {
          "internalType": "address",
          "name": "minter",
          "type": "address"
        }
      ],
      "name": "grantMinter",
      "outputs": [],
      "stateMutability": "nonpayable",
      "type": "function"
    },
    {
      "inputs": [
        {
          "internalType": "bytes32",
          "name": "role",
          "type": "bytes32"
        },
        {
          "internalType": "address",
          "name": "account",
          "type": "address"
        }
      ],
      "name": "grantRole",
      "outputs": [],
      "stateMutability": "nonpayable",
      "type": "function"
    },
    {
      "inputs": [
        {
          "internalType": "bytes32",
          "name": "role",
          "type": "bytes32"
        },
        {
          "internalType": "address",
          "name": "account",
          "type": "address"
        }
      ],
      "name": "hasRole",
      "outputs": [
        {
          "internalType": "bool",
          "name": "",
          "type": "bool"
        }
      ],
      "stateMutability": "view",
      "type": "function"
    },
    {
      "inputs": [
        {
          "internalType": "bytes32",
          "name": "role",
          "type": "bytes32"
        },
        {
          "internalType": "address",
          "name": "callerConfirmation",
          "type": "address"
        }
      ],
      "name": "renounceRole",
      "outputs": [],
      "stateMutability": "nonpayable",
      "type": "function"
    },
    {
      "inputs": [
        {
          "internalType": "address",
          "name": "admin",
          "type": "address"
        }
      ],
      "name": "revokeAdmin",
      "outputs": [],
      "stateMutability": "nonpayable",
      "type": "function"
    },
    {
      "inputs": [
        {
          "internalType": "address",
          "name": "burner",
          "type": "address"
        }
      ],
      "name": "revokeBurner",
      "outputs": [],
      "stateMutability": "nonpayable",
      "type": "function"
    },
    {
      "inputs": [
        {
          "internalType": "address",
          "name": "minter",
          "type": "address"
        }
      ],
      "name": "revokeMinter",
      "outputs": [],
      "stateMutability": "nonpayable",
      "type": "function"
    },
    {
      "inputs": [
        {
          "internalType": "bytes32",
          "name": "role",
          "type": "bytes32"
        },
        {
          "internalType": "address",
          "name": "account",
          "type": "address"
        }
      ],
      "name": "revokeRole",
      "outputs": [],
      "stateMutability": "nonpayable",
      "type": "function"
    },
    {
      "inputs": [
        {
          "internalType": "bytes4",
          "name": "interfaceId",
          "type": "bytes4"
        }
      ],
      "name": "supportsInterface",
      "outputs": [
        {
          "internalType": "bool",
          "name": "",
          "type": "bool"
        }
      ],
      "stateMutability": "view",
      "type": "function"
    }
  ],
  "bytecode": "0x608060405234801561001057600080fd5b50610a91806100206000396000f3fe608060405234801561001057600080fd5b506004361061010b5760003560e01c806335bb3e16116100a2578063a217fddf11610071578063a217fddf14610255578063ca15c8731461025d578063cfbd488514610270578063d539139314610283578063d547741f146102aa57600080fd5b806335bb3e16146101f157806336568abe146102045780639010d07c1461021757806391d148541461024257600080fd5b8063261707fa116100de578063261707fa14610191578063282c51f3146101a45780632d345670146101cb5780632f2ff15d146101de57600080fd5b806301ffc9a7146101105780630900cc331461013857806310511f961461014d578063248a9ca314610160575b600080fd5b61012361011e3660046108fe565b6102bd565b60405190151581526020015b60405180910390f35b61014b610146366004610944565b6102e8565b005b61014b61015b366004610944565b610345565b61018361016e36600461095f565b60009081526020819052604090206001015490565b60405190815260200161012f565b61014b61019f366004610944565b610396565b6101837f3c11d16cbaffd01df69ce1c404f6340ee057498f5f00246190ea54220576a84881565b61014b6101d9366004610944565b6103e7565b61014b6101ec366004610978565b610419565b61014b6101ff366004610944565b610444565b61014b610212366004610978565b610476565b61022a6102253660046109a4565b6104ae565b6040516001600160a01b03909116815260200161012f565b610123610250366004610978565b6104cd565b610183600081565b61018361026b36600461095f565b6104f6565b61014b61027e366004610944565b61050d565b6101837f9f2df0fed2c77648de5860a4cc508cd0818c85b8b8a1ab4ceeef8d981c8956a681565b61014b6102b8366004610978565b61055a565b60006001600160e01b03198216635a05180f60e01b14806102e257506102e28261057f565b92915050565b6102f36000336104cd565b6103185760405162461bcd60e51b815260040161030f906109c6565b60405180910390fd5b6103427f3c11d16cbaffd01df69ce1c404f6340ee057498f5f00246190ea54220576a8488261055a565b50565b6103506000336104cd565b61036c5760405162461bcd60e51b815260040161030f906109c6565b6103427f3c11d16cbaffd01df69ce1c404f6340ee057498f5f00246190ea54220576a84882610419565b6103a16000336104cd565b6103bd5760405162461bcd60e51b815260040161030f906109c6565b6103427f9f2df0fed2c77648de5860a4cc508cd0818c85b8b8a1ab4ceeef8d981c8956a682610419565b6103f26000336104cd565b61040e5760405162461bcd60e51b815260040161030f906109c6565b61034260008261055a565b600082815260208190526040902060010154610434816105b4565b61043e83836105be565b50505050565b61044f6000336104cd565b61046b5760405162461bcd60e51b815260040161030f906109c6565b610342600082610419565b6001600160a01b038116331461049f5760405163334bd91960e11b815260040160405180910390fd5b6104a982826105f3565b505050565b60008281526001602052604081206104c69083610620565b9392505050565b6000918252602082815260408084206001600160a01b0393909316845291905290205460ff1690565b60008181526001602052604081206102e29061062c565b6105186000336104cd565b6105345760405162461bcd60e51b815260040161030f906109c6565b6103427f9f2df0fed2c77648de5860a4cc508cd0818c85b8b8a1ab4ceeef8d981c8956a6825b600082815260208190526040902060010154610575816105b4565b61043e83836105f3565b60006001600160e01b03198216637965db0b60e01b14806102e257506301ffc9a760e01b6001600160e01b03198316146102e2565b6103428133610636565b6000806105cb8484610673565b905080156104c65760008481526001602052604090206105eb9084610705565b509392505050565b600080610600848461071a565b905080156104c65760008481526001602052604090206105eb9084610785565b60006104c6838361079a565b60006102e2825490565b61064082826104cd565b61066f5760405163e2517d3f60e01b81526001600160a01b03821660048201526024810183905260440161030f565b5050565b600061067f83836104cd565b6106fd576000838152602081815260408083206001600160a01b03861684529091529020805460ff191660011790556106b53390565b6001600160a01b0316826001600160a01b0316847f2f8788117e7eff1d82e926ec794901d17c78024a50270940304540a733656f0d60405160405180910390a45060016102e2565b5060006102e2565b60006104c6836001600160a01b0384166107c4565b600061072683836104cd565b156106fd576000838152602081815260408083206001600160a01b0386168085529252808320805460ff1916905551339286917ff6391f5c32d9c69d2a47ea670b442974b53935d1edc7fd64eb21e047a839171b9190a45060016102e2565b60006104c6836001600160a01b03841661080b565b60008260000182815481106107b1576107b1610a0e565b9060005260206000200154905092915050565b60008181526001830160205260408120546106fd575081546001818101845560008481526020808220909301849055845484825282860190935260409020919091556102e2565b600081815260018301602052604081205480156108f457600061082f600183610a24565b855490915060009061084390600190610a24565b90508082146108a857600086600001828154811061086357610863610a0e565b906000526020600020015490508087600001848154811061088657610886610a0e565b6000918252602080832090910192909255918252600188019052604090208390555b85548690806108b9576108b9610a45565b6001900381819060005260206000200160009055905585600101600086815260200190815260200160002060009055600193505050506102e2565b60009150506102e2565b60006020828403121561091057600080fd5b81356001600160e01b0319811681146104c657600080fd5b80356001600160a01b038116811461093f57600080fd5b919050565b60006020828403121561095657600080fd5b6104c682610928565b60006020828403121561097157600080fd5b5035919050565b6000806040838503121561098b57600080fd5b8235915061099b60208401610928565b90509250929050565b600080604083850312156109b757600080fd5b50508035926020909101359150565b60208082526028908201527f43616c6c657220646f6573206e6f742068617320612044454641554c545f41446040820152674d494e5f524f4c4560c01b606082015260800190565b634e487b7160e01b600052603260045260246000fd5b818103818111156102e257634e487b7160e01b600052601160045260246000fd5b634e487b7160e01b600052603160045260246000fdfea26469706673582212205683fd7d4d752e5828068546daa59d87c7e1a7147cc1d82c09bdbbc8a3b65bc464736f6c63430008140033",
  "linkReferences": {},
  "deployedLinkReferences": {}
}