{
  "_format": "hh-sol-artifact-1",
  "contractName": "PalmNFT",
  "sourceName": "contracts/PalmNFT.sol",
  "abi": [
    {
      "inputs": [],
      "stateMutability": "nonpayable",
      "type": "constructor"
    },
    {
      "inputs": [],
      "name": "AccessControlBadConfirmation",
      "type": "error"
    },
    {
      "inputs": [
        {
          "internalType": "address",
          "name": "account",
          "type": "address"
        },
        {
          "internalType": "bytes32",
          "name": "neededRole",
          "type": "bytes32"
        }
      ],
      "name": "AccessControlUnauthorizedAccount",
      "type": "error"
    },
    {
      "inputs": [],
      "name": "ERC721EnumerableForbiddenBatchMint",
      "type": "error"
    },
    {
      "inputs": [
        {
          "internalType": "address",
          "name": "sender",
          "type": "address"
        },
        {
          "internalType": "uint256",
          "name": "tokenId",
          "type": "uint256"
        },
        {
          "internalType": "address",
          "name": "owner",
          "type": "address"
        }
      ],
      "name": "ERC721IncorrectOwner",
      "type": "error"
    },
    {
      "inputs": [
        {
          "internalType": "address",
          "name": "operator",
          "type": "address"
        },
        {
          "internalType": "uint256",
          "name": "tokenId",
          "type": "uint256"
        }
      ],
      "name": "ERC721InsufficientApproval",
      "type": "error"
    },
    {
      "inputs": [
        {
          "internalType": "address",
          "name": "approver",
          "type": "address"
        }
      ],
      "name": "ERC721InvalidApprover",
      "type": "error"
    },
    {
      "inputs": [
        {
          "internalType": "address",
          "name": "operator",
          "type": "address"
        }
      ],
      "name": "ERC721InvalidOperator",
      "type": "error"
    },
    {
      "inputs": [
        {
          "internalType": "address",
          "name": "owner",
          "type": "address"
        }
      ],
      "name": "ERC721InvalidOwner",
      "type": "error"
    },
    {
      "inputs": [
        {
          "internalType": "address",
          "name": "receiver",
          "type": "address"
        }
      ],
      "name": "ERC721InvalidReceiver",
      "type": "error"
    },
    {
      "inputs": [
        {
          "internalType": "address",
          "name": "sender",
          "type": "address"
        }
      ],
      "name": "ERC721InvalidSender",
      "type": "error"
    },
    {
      "inputs": [
        {
          "internalType": "uint256",
          "name": "tokenId",
          "type": "uint256"
        }
      ],
      "name": "ERC721NonexistentToken",
      "type": "error"
    },
    {
      "inputs": [
        {
          "internalType": "address",
          "name": "owner",
          "type": "address"
        },
        {
          "internalType": "uint256",
          "name": "index",
          "type": "uint256"
        }
      ],
      "name": "ERC721OutOfBoundsIndex",
      "type": "error"
    },
    {
      "anonymous": false,
      "inputs": [
        {
          "indexed": true,
          "internalType": "address",
          "name": "owner",
          "type": "address"
        },
        {
          "indexed": true,
          "internalType": "address",
          "name": "approved",
          "type": "address"
        },
        {
          "indexed": true,
          "internalType": "uint256",
          "name": "tokenId",
          "type": "uint256"
        }
      ],
      "name": "Approval",
      "type": "event"
    },
    {
      "anonymous": false,
      "inputs": [
        {
          "indexed": true,
          "internalType": "address",
          "name": "owner",
          "type": "address"
        },
        {
          "indexed": true,
          "internalType": "address",
          "name": "operator",
          "type": "address"
        },
        {
          "indexed": false,
          "internalType": "bool",
          "name": "approved",
          "type": "bool"
        }
      ],
      "name": "ApprovalForAll",
      "type": "event"
    },
    {
      "anonymous": false,
      "inputs": [
        {
          "indexed": false,
          "internalType": "uint256",
          "name": "_fromTokenId",
          "type": "uint256"
        },
        {
          "indexed": false,
          "internalType": "uint256",
          "name": "_toTokenId",
          "type": "uint256"
        }
      ],
      "name": "BatchMetadataUpdate",
      "type": "event"
    },
    {
      "anonymous": false,
      "inputs": [
        {
          "indexed": false,
          "internalType": "address",
          "name": "account",
          "type": "address"
        }
      ],
      "name": "Freeze",
      "type": "event"
    },
    {
      "anonymous": false,
      "inputs": [
        {
          "indexed": false,
          "internalType": "string",
          "name": "memo",
          "type": "string"
        }
      ],
      "name": "Memo",
      "type": "event"
    },
    {
      "anonymous": false,
      "inputs": [
        {
          "indexed": false,
          "internalType": "uint256",
          "name": "_tokenId",
          "type": "uint256"
        }
      ],
      "name": "MetadataUpdate",
      "type": "event"
    },
    {
      "anonymous": false,
      "inputs": [
        {
          "indexed": true,
          "internalType": "bytes32",
          "name": "role",
          "type": "bytes32"
        },
        {
          "indexed": true,
          "internalType": "bytes32",
          "name": "previousAdminRole",
          "type": "bytes32"
        },
        {
          "indexed": true,
          "internalType": "bytes32",
          "name": "newAdminRole",
          "type": "bytes32"
        }
      ],
      "name": "RoleAdminChanged",
      "type": "event"
    },
    {
      "anonymous": false,
      "inputs": [
        {
          "indexed": true,
          "internalType": "bytes32",
          "name": "role",
          "type": "bytes32"
        },
        {
          "indexed": true,
          "internalType": "address",
          "name": "account",
          "type": "address"
        },
        {
          "indexed": true,
          "internalType": "address",
          "name": "sender",
          "type": "address"
        }
      ],
      "name": "RoleGranted",
      "type": "event"
    },
    {
      "anonymous": false,
      "inputs": [
        {
          "indexed": true,
          "internalType": "bytes32",
          "name": "role",
          "type": "bytes32"
        },
        {
          "indexed": true,
          "internalType": "address",
          "name": "account",
          "type": "address"
        },
        {
          "indexed": true,
          "internalType": "address",
          "name": "sender",
          "type": "address"
        }
      ],
      "name": "RoleRevoked",
      "type": "event"
    },
    {
      "anonymous": false,
      "inputs": [
        {
          "indexed": true,
          "internalType": "address",
          "name": "from",
          "type": "address"
        },
        {
          "indexed": true,
          "internalType": "address",
          "name": "to",
          "type": "address"
        },
        {
          "indexed": true,
          "internalType": "uint256",
          "name": "tokenId",
          "type": "uint256"
        }
      ],
      "name": "Transfer",
      "type": "event"
    },
    {
      "anonymous": false,
      "inputs": [
        {
          "indexed": false,
          "internalType": "address",
          "name": "account",
          "type": "address"
        }
      ],
      "name": "Unfreeze",
      "type": "event"
    },
    {
      "inputs": [],
      "name": "BURNER_ROLE",
      "outputs": [
        {
          "internalType": "bytes32",
          "name": "",
          "type": "bytes32"
        }
      ],
      "stateMutability": "view",
      "type": "function"
    },
    {
      "inputs": [],
      "name": "DEFAULT_ADMIN_ROLE",
      "outputs": [
        {
          "internalType": "bytes32",
          "name": "",
          "type": "bytes32"
        }
      ],
      "stateMutability": "view",
      "type": "function"
    },
    {
      "inputs": [],
      "name": "MINTER_ROLE",
      "outputs": [
        {
          "internalType": "bytes32",
          "name": "",
          "type": "bytes32"
        }
      ],
      "stateMutability": "view",
      "type": "function"
    },
    {
      "inputs": [
        {
          "internalType": "address",
          "name": "to",
          "type": "address"
        },
        {
          "internalType": "uint256",
          "name": "tokenId",
          "type": "uint256"
        }
      ],
      "name": "approve",
      "outputs": [],
      "stateMutability": "nonpayable",
      "type": "function"
    },
    {
      "inputs": [
        {
          "internalType": "address",
          "name": "owner",
          "type": "address"
        }
      ],
      "name": "balanceOf",
      "outputs": [
        {
          "internalType": "uint256",
          "name": "",
          "type": "uint256"
        }
      ],
      "stateMutability": "view",
      "type": "function"
    },
    {
      "inputs": [
        {
          "internalType": "uint256",
          "name": "tokenId",
          "type": "uint256"
        }
      ],
      "name": "burn",
      "outputs": [],
      "stateMutability": "nonpayable",
      "type": "function"
    },
    {
      "inputs": [
        {
          "internalType": "address",
          "name": "account",
          "type": "address"
        }
      ],
      "name": "freeze",
      "outputs": [],
      "stateMutability": "nonpayable",
      "type": "function"
    },
    {
      "inputs": [
        {
          "internalType": "address",
          "name": "",
          "type": "address"
        }
      ],
      "name": "freezeAccounts",
      "outputs": [
        {
          "internalType": "bool",
          "name": "",
          "type": "bool"
        }
      ],
      "stateMutability": "view",
      "type": "function"
    },
    {
      "inputs": [
        {
          "internalType": "uint256",
          "name": "tokenId",
          "type": "uint256"
        }
      ],
      "name": "getApproved",
      "outputs": [
        {
          "internalType": "address",
          "name": "",
          "type": "address"
        }
      ],
      "stateMutability": "view",
      "type": "function"
    },
    {
      "inputs": [
        {
          "internalType": "bytes32",
          "name": "role",
          "type": "bytes32"
        }
      ],
      "name": "getRoleAdmin",
      "outputs": [
        {
          "internalType": "bytes32",
          "name": "",
          "type": "bytes32"
        }
      ],
      "stateMutability": "view",
      "type": "function"
    },
    {
      "inputs": [
        {
          "internalType": "bytes32",
          "name": "role",
          "type": "bytes32"
        },
        {
          "internalType": "uint256",
          "name": "index",
          "type": "uint256"
        }
      ],
      "name": "getRoleMember",
      "outputs": [
        {
          "internalType": "address",
          "name": "",
          "type": "address"
        }
      ],
      "stateMutability": "view",
      "type": "function"
    },
    {
      "inputs": [
        {
          "internalType": "bytes32",
          "name": "role",
          "type": "bytes32"
        }
      ],
      "name": "getRoleMemberCount",
      "outputs": [
        {
          "internalType": "uint256",
          "name": "",
          "type": "uint256"
        }
      ],
      "stateMutability": "view",
      "type": "function"
    },
    {
      "inputs": [
        {
          "internalType": "address",
          "name": "admin",
          "type": "address"
        }
      ],
      "name": "grantAdmin",
      "outputs": [],
      "stateMutability": "nonpayable",
      "type": "function"
    },
    {
      "inputs": [
        {
          "internalType": "address",
          "name": "burner",
          "type": "address"
        }
      ],
      "name": "grantBurner",
      "outputs": [],
      "stateMutability": "nonpayable",
      "type": "function"
    },
    {
      "inputs": [
        {
          "internalType": "address",
          "name": "minter",
          "type": "address"
        }
      ],
      "name": "grantMinter",
      "outputs": [],
      "stateMutability": "nonpayable",
      "type": "function"
    },
    {
      "inputs": [
        {
          "internalType": "bytes32",
          "name": "role",
          "type": "bytes32"
        },
        {
          "internalType": "address",
          "name": "account",
          "type": "address"
        }
      ],
      "name": "grantRole",
      "outputs": [],
      "stateMutability": "nonpayable",
      "type": "function"
    },
    {
      "inputs": [
        {
          "internalType": "bytes32",
          "name": "role",
          "type": "bytes32"
        },
        {
          "internalType": "address",
          "name": "account",
          "type": "address"
        }
      ],
      "name": "hasRole",
      "outputs": [
        {
          "internalType": "bool",
          "name": "",
          "type": "bool"
        }
      ],
      "stateMutability": "view",
      "type": "function"
    },
    {
      "inputs": [
        {
          "internalType": "address",
          "name": "owner",
          "type": "address"
        },
        {
          "internalType": "address",
          "name": "operator",
          "type": "address"
        }
      ],
      "name": "isApprovedForAll",
      "outputs": [
        {
          "internalType": "bool",
          "name": "",
          "type": "bool"
        }
      ],
      "stateMutability": "view",
      "type": "function"
    },
    {
      "inputs": [],
      "name": "isPubliclyMintable",
      "outputs": [
        {
          "internalType": "bool",
          "name": "",
          "type": "bool"
        }
      ],
      "stateMutability": "view",
      "type": "function"
    },
    {
      "inputs": [],
      "name": "isSBT",
      "outputs": [
        {
          "internalType": "bool",
          "name": "",
          "type": "bool"
        }
      ],
      "stateMutability": "view",
      "type": "function"
    },
    {
      "inputs": [],
      "name": "name",
      "outputs": [
        {
          "internalType": "string",
          "name": "",
          "type": "string"
        }
      ],
      "stateMutability": "view",
      "type": "function"
    },
    {
      "inputs": [
        {
          "internalType": "uint256",
          "name": "tokenId",
          "type": "uint256"
        }
      ],
      "name": "ownerOf",
      "outputs": [
        {
          "internalType": "address",
          "name": "",
          "type": "address"
        }
      ],
      "stateMutability": "view",
      "type": "function"
    },
    {
      "inputs": [
        {
          "internalType": "bytes32",
          "name": "role",
          "type": "bytes32"
        },
        {
          "internalType": "address",
          "name": "callerConfirmation",
          "type": "address"
        }
      ],
      "name": "renounceRole",
      "outputs": [],
      "stateMutability": "nonpayable",
      "type": "function"
    },
    {
      "inputs": [
        {
          "internalType": "address",
          "name": "admin",
          "type": "address"
        }
      ],
      "name": "revokeAdmin",
      "outputs": [],
      "stateMutability": "nonpayable",
      "type": "function"
    },
    {
      "inputs": [
        {
          "internalType": "address",
          "name": "burner",
          "type": "address"
        }
      ],
      "name": "revokeBurner",
      "outputs": [],
      "stateMutability": "nonpayable",
      "type": "function"
    },
    {
      "inputs": [
        {
          "internalType": "address",
          "name": "minter",
          "type": "address"
        }
      ],
      "name": "revokeMinter",
      "outputs": [],
      "stateMutability": "nonpayable",
      "type": "function"
    },
    {
      "inputs": [
        {
          "internalType": "bytes32",
          "name": "role",
          "type": "bytes32"
        },
        {
          "internalType": "address",
          "name": "account",
          "type": "address"
        }
      ],
      "name": "revokeRole",
      "outputs": [],
      "stateMutability": "nonpayable",
      "type": "function"
    },
    {
      "inputs": [
        {
          "internalType": "address",
          "name": "to",
          "type": "address"
        },
        {
          "internalType": "string",
          "name": "uri",
          "type": "string"
        }
      ],
      "name": "safeMint",
      "outputs": [
        {
          "internalType": "uint256",
          "name": "",
          "type": "uint256"
        }
      ],
      "stateMutability": "nonpayable",
      "type": "function"
    },
    {
      "inputs": [
        {
          "internalType": "address",
          "name": "to",
          "type": "address"
        },
        {
          "internalType": "uint256",
          "name": "tokenId",
          "type": "uint256"
        }
      ],
      "name": "safeTransfer",
      "outputs": [],
      "stateMutability": "nonpayable",
      "type": "function"
    },
    {
      "inputs": [
        {
          "internalType": "address",
          "name": "from",
          "type": "address"
        },
        {
          "internalType": "address",
          "name": "to",
          "type": "address"
        },
        {
          "internalType": "uint256",
          "name": "tokenId",
          "type": "uint256"
        }
      ],
      "name": "safeTransferFrom",
      "outputs": [],
      "stateMutability": "nonpayable",
      "type": "function"
    },
    {
      "inputs": [
        {
          "internalType": "address",
          "name": "from",
          "type": "address"
        },
        {
          "internalType": "address",
          "name": "to",
          "type": "address"
        },
        {
          "internalType": "uint256",
          "name": "tokenId",
          "type": "uint256"
        },
        {
          "internalType": "bytes",
          "name": "data",
          "type": "bytes"
        }
      ],
      "name": "safeTransferFrom",
      "outputs": [],
      "stateMutability": "nonpayable",
      "type": "function"
    },
    {
      "inputs": [
        {
          "internalType": "address",
          "name": "operator",
          "type": "address"
        },
        {
          "internalType": "bool",
          "name": "approved",
          "type": "bool"
        }
      ],
      "name": "setApprovalForAll",
      "outputs": [],
      "stateMutability": "nonpayable",
      "type": "function"
    },
    {
      "inputs": [
        {
          "internalType": "bool",
          "name": "mintable",
          "type": "bool"
        }
      ],
      "name": "setPubliclyMintable",
      "outputs": [],
      "stateMutability": "nonpayable",
      "type": "function"
    },
    {
      "inputs": [
        {
          "internalType": "bool",
          "name": "SBT",
          "type": "bool"
        }
      ],
      "name": "setToSBT",
      "outputs": [],
      "stateMutability": "nonpayable",
      "type": "function"
    },
    {
      "inputs": [
        {
          "internalType": "uint256",
          "name": "tokenId",
          "type": "uint256"
        },
        {
          "internalType": "string",
          "name": "uri",
          "type": "string"
        }
      ],
      "name": "setTokenURI",
      "outputs": [],
      "stateMutability": "nonpayable",
      "type": "function"
    },
    {
      "inputs": [
        {
          "internalType": "bytes4",
          "name": "interfaceId",
          "type": "bytes4"
        }
      ],
      "name": "supportsInterface",
      "outputs": [
        {
          "internalType": "bool",
          "name": "",
          "type": "bool"
        }
      ],
      "stateMutability": "view",
      "type": "function"
    },
    {
      "inputs": [],
      "name": "symbol",
      "outputs": [
        {
          "internalType": "string",
          "name": "",
          "type": "string"
        }
      ],
      "stateMutability": "view",
      "type": "function"
    },
    {
      "inputs": [
        {
          "internalType": "uint256",
          "name": "index",
          "type": "uint256"
        }
      ],
      "name": "tokenByIndex",
      "outputs": [
        {
          "internalType": "uint256",
          "name": "",
          "type": "uint256"
        }
      ],
      "stateMutability": "view",
      "type": "function"
    },
    {
      "inputs": [
        {
          "internalType": "address",
          "name": "owner",
          "type": "address"
        },
        {
          "internalType": "uint256",
          "name": "index",
          "type": "uint256"
        }
      ],
      "name": "tokenOfOwnerByIndex",
      "outputs": [
        {
          "internalType": "uint256",
          "name": "",
          "type": "uint256"
        }
      ],
      "stateMutability": "view",
      "type": "function"
    },
    {
      "inputs": [
        {
          "internalType": "uint256",
          "name": "tokenId",
          "type": "uint256"
        }
      ],
      "name": "tokenURI",
      "outputs": [
        {
          "internalType": "string",
          "name": "",
          "type": "string"
        }
      ],
      "stateMutability": "view",
      "type": "function"
    },
    {
      "inputs": [],
      "name": "totalSupply",
      "outputs": [
        {
          "internalType": "uint256",
          "name": "",
          "type": "uint256"
        }
      ],
      "stateMutability": "view",
      "type": "function"
    },
    {
      "inputs": [
        {
          "internalType": "address",
          "name": "to",
          "type": "address"
        },
        {
          "internalType": "uint256",
          "name": "tokenId",
          "type": "uint256"
        }
      ],
      "name": "transfer",
      "outputs": [],
      "stateMutability": "nonpayable",
      "type": "function"
    },
    {
      "inputs": [
        {
          "internalType": "address",
          "name": "from",
          "type": "address"
        },
        {
          "internalType": "address",
          "name": "to",
          "type": "address"
        },
        {
          "internalType": "uint256",
          "name": "tokenId",
          "type": "uint256"
        }
      ],
      "name": "transferFrom",
      "outputs": [],
      "stateMutability": "nonpayable",
      "type": "function"
    },
    {
      "inputs": [
        {
          "internalType": "address",
          "name": "account",
          "type": "address"
        }
      ],
      "name": "unfreeze",
      "outputs": [],
      "stateMutability": "nonpayable",
      "type": "function"
    }
  ],
  "bytecode": "0x6080604052600d805461ffff191690553480156200001c57600080fd5b506040518060400160405280600881526020016714185b1b4b53919560c21b8152506040518060400160405280600781526020016614185b1b53919560ca1b81525081600090816200006f9190620002df565b5060016200007e8282620002df565b506200009091506000905033620000f1565b50620000bd7f9f2df0fed2c77648de5860a4cc508cd0818c85b8b8a1ab4ceeef8d981c8956a633620000f1565b50620000ea7f3c11d16cbaffd01df69ce1c404f6340ee057498f5f00246190ea54220576a84833620000f1565b50620003ab565b6000806200010084846200012e565b9050801562000125576000848152600c60205260409020620001239084620001e0565b505b90505b92915050565b6000828152600b602090815260408083206001600160a01b038516845290915281205460ff16620001d7576000838152600b602090815260408083206001600160a01b03861684529091529020805460ff191660011790556200018e3390565b6001600160a01b0316826001600160a01b0316847f2f8788117e7eff1d82e926ec794901d17c78024a50270940304540a733656f0d60405160405180910390a450600162000128565b50600062000128565b600062000125836001600160a01b0384166000818152600183016020526040812054620001d75750815460018181018455600084815260208082209093018490558454848252828601909352604090209190915562000128565b634e487b7160e01b600052604160045260246000fd5b600181811c908216806200026557607f821691505b6020821081036200028657634e487b7160e01b600052602260045260246000fd5b50919050565b601f821115620002da57600081815260208120601f850160051c81016020861015620002b55750805b601f850160051c820191505b81811015620002d657828155600101620002c1565b5050505b505050565b81516001600160401b03811115620002fb57620002fb6200023a565b62000313816200030c845462000250565b846200028c565b602080601f8311600181146200034b5760008415620003325750858301515b600019600386901b1c1916600185901b178555620002d6565b600085815260208120601f198616915b828110156200037c578886015182559484019460019091019084016200035b565b50858210156200039b5787850151600019600388901b60f8161c191681555b5050505050600190811b01905550565b61262980620003bb6000396000f3fe608060405234801561001057600080fd5b50600436106102745760003560e01c80634f6ccce711610151578063b88d4fde116100c3578063d539139311610087578063d539139314610563578063d547741f14610578578063dcf993ee1461058b578063e276fea314610598578063e485857b146105bb578063e985e9c5146105ce57600080fd5b8063b88d4fde14610504578063c87b56dd14610517578063ca15c8731461052a578063cfbd48851461053d578063d204c45e1461055057600080fd5b80639010d07c116101155780639010d07c146104bb57806391d14854146104ce57806395d89b41146104e1578063a217fddf146104e9578063a22cb465146104f1578063a9059cbb1461041057600080fd5b80634f6ccce71461045c5780636352211e1461046f57806370a082311461048257806371222467146104955780638d1fdf2f146104a857600080fd5b8063282c51f3116101ea57806336568abe116101ae57806336568abe146103eb5780633cf40df3146103fe578063423f6cef1461041057806342842e0e1461042357806342966c681461043657806345c8b1a61461044957600080fd5b8063282c51f31461038a5780632d3456701461039f5780632f2ff15d146103b25780632f745c59146103c557806335bb3e16146103d857600080fd5b806310511f961161023c57806310511f9614610309578063162094c41461031c57806318160ddd1461032f57806323b872dd14610341578063248a9ca314610354578063261707fa1461037757600080fd5b806301ffc9a71461027957806306fdde03146102a1578063081812fc146102b65780630900cc33146102e1578063095ea7b3146102f6575b600080fd5b61028c610287366004611f88565b6105e1565b60405190151581526020015b60405180910390f35b6102a96105f2565b6040516102989190611ff5565b6102c96102c4366004612008565b610684565b6040516001600160a01b039091168152602001610298565b6102f46102ef36600461203d565b6106ad565b005b6102f4610304366004612058565b6106f8565b6102f461031736600461203d565b610707565b6102f461032a36600461212e565b610746565b6009545b604051908152602001610298565b6102f461034f366004612175565b610777565b610333610362366004612008565b6000908152600b602052604090206001015490565b6102f461038536600461203d565b610802565b6103336000805160206125b483398151915281565b6102f46103ad36600461203d565b610841565b6102f46103c03660046121b1565b610873565b6103336103d3366004612058565b610898565b6102f46103e636600461203d565b6108fd565b6102f46103f93660046121b1565b61092f565b600d5461028c90610100900460ff1681565b6102f461041e366004612058565b610967565b6102f4610431366004612175565b610a32565b6102f4610444366004612008565b610a4d565b6102f461045736600461203d565b610baa565b61033361046a366004612008565b610c29565b6102c961047d366004612008565b610c82565b61033361049036600461203d565b610c8d565b6102f46104a33660046121ed565b610cd5565b6102f46104b636600461203d565b610d0f565b6102c96104c9366004612208565b610d8a565b61028c6104dc3660046121b1565b610da9565b6102a9610dd4565b610333600081565b6102f46104ff36600461222a565b610de3565b6102f4610512366004612254565b610dee565b6102a9610525366004612008565b610e05565b610333610538366004612008565b610e10565b6102f461054b36600461203d565b610e27565b61033361055e3660046122d0565b610e66565b6103336000805160206125d483398151915281565b6102f46105863660046121b1565b610f61565b600d5461028c9060ff1681565b61028c6105a636600461203d565b600f6020526000908152604090205460ff1681565b6102f46105c93660046121ed565b610f86565b61028c6105dc366004612308565b610fc7565b60006105ec82610ff5565b92915050565b60606000805461060190612332565b80601f016020809104026020016040519081016040528092919081815260200182805461062d90612332565b801561067a5780601f1061064f5761010080835404028352916020019161067a565b820191906000526020600020905b81548152906001019060200180831161065d57829003601f168201915b5050505050905090565b600061068f8261101a565b506000828152600460205260409020546001600160a01b03166105ec565b6106b8600033610da9565b6106dd5760405162461bcd60e51b81526004016106d49061236c565b60405180910390fd5b6106f56000805160206125b483398151915282610f61565b50565b610703828233611053565b5050565b610712600033610da9565b61072e5760405162461bcd60e51b81526004016106d49061236c565b6106f56000805160206125b483398151915282610873565b610751600033610da9565b61076d5760405162461bcd60e51b81526004016106d49061236c565b6107038282611060565b6001600160a01b0382166107a157604051633250574960e11b8152600060048201526024016106d4565b60006107ae8383336110b0565b9050836001600160a01b0316816001600160a01b0316146107fc576040516364283d7b60e01b81526001600160a01b03808616600483015260248201849052821660448201526064016106d4565b50505050565b61080d600033610da9565b6108295760405162461bcd60e51b81526004016106d49061236c565b6106f56000805160206125d483398151915282610873565b61084c600033610da9565b6108685760405162461bcd60e51b81526004016106d49061236c565b6106f5600082610f61565b6000828152600b602052604090206001015461088e816110c5565b6107fc83836110cf565b60006108a383610c8d565b82106108d45760405163295f44f760e21b81526001600160a01b0384166004820152602481018390526044016106d4565b506001600160a01b03919091166000908152600760209081526040808320938352929052205490565b610908600033610da9565b6109245760405162461bcd60e51b81526004016106d49061236c565b6106f5600082610873565b6001600160a01b03811633146109585760405163334bd91960e11b815260040160405180910390fd5b6109628282611104565b505050565b600d54610100900460ff16156109ce5760405162461bcd60e51b815260206004820152602660248201527f54686973204e465420776173206e6f74207065726d697474656420746f20747260448201526530b739b332b960d11b60648201526084016106d4565b336000908152600f602052604090205460ff161515600103610a2b5760405162461bcd60e51b815260206004820152601660248201527543616c6c657220686173206265656e20667265657a6560501b60448201526064016106d4565b6107033383835b61096283838360405180602001604052806000815250610dee565b600d54610100900460ff1615610ab05760405162461bcd60e51b815260206004820152602260248201527f54686973204e465420776173206e6f74207065726d697474656420746f206275604482015261393760f11b60648201526084016106d4565b336000908152600f602052604090205460ff161515600103610b0d5760405162461bcd60e51b815260206004820152601660248201527543616c6c657220686173206265656e20667265657a6560501b60448201526064016106d4565b6000610b276000805160206125b483398151915233610da9565b90508015610b385761070382611131565b610b4182610c82565b6001600160a01b0316336001600160a01b031614610ba15760405162461bcd60e51b815260206004820152601c60248201527f43616c6c657220646f6573206e6f74206f776e2074686973204e46540000000060448201526064016106d4565b61070382611131565b610bb5600033610da9565b610bd15760405162461bcd60e51b81526004016106d49061236c565b6001600160a01b0381166000818152600f6020908152604091829020805460ff1916905590519182527faf85b60d26151edd11443b704d424da6c43d0468f2235ebae3d1904dbc32304991015b60405180910390a150565b6000610c3460095490565b8210610c5d5760405163295f44f760e21b815260006004820152602481018390526044016106d4565b60098281548110610c7057610c706123b4565b90600052602060002001549050919050565b60006105ec8261101a565b60006001600160a01b038216610cb9576040516322718ad960e21b8152600060048201526024016106d4565b506001600160a01b031660009081526003602052604090205490565b610ce0600033610da9565b610cfc5760405162461bcd60e51b81526004016106d49061236c565b600d805460ff1916911515919091179055565b610d1a600033610da9565b610d365760405162461bcd60e51b81526004016106d49061236c565b6001600160a01b0381166000818152600f6020908152604091829020805460ff1916600117905590519182527faf85b60d26151edd11443b704d424da6c43d0468f2235ebae3d1904dbc3230499101610c1e565b6000828152600c60205260408120610da2908361116c565b9392505050565b6000918252600b602090815260408084206001600160a01b0393909316845291905290205460ff1690565b60606001805461060190612332565b610703338383611178565b610df9848484610777565b6107fc84848484611217565b60606105ec82611340565b6000818152600c602052604081206105ec90611449565b610e32600033610da9565b610e4e5760405162461bcd60e51b81526004016106d49061236c565b6106f56000805160206125d483398151915282610f61565b60105460009060ff1615610e7957600080fd5b6010805460ff191660011790556000610ea06000805160206125d483398151915233610da9565b600d5490915060ff1680610eb15750805b15610eef57600e54610ec38582611453565b610ecd8185611060565b6001600e6000828254610ee091906123e0565b90915550909250610f51915050565b600d5460ff16610f4b5760405162461bcd60e51b815260206004820152602160248201527f54686973204e4654206973206e6f74207075626c69636c79206d696e7461626c6044820152606560f81b60648201526084016106d4565b60009150505b6010805460ff1916905592915050565b6000828152600b6020526040902060010154610f7c816110c5565b6107fc8383611104565b610f91600033610da9565b610fad5760405162461bcd60e51b81526004016106d49061236c565b600d80549115156101000261ff0019909216919091179055565b6001600160a01b03918216600090815260056020908152604080832093909416825291909152205460ff1690565b60006001600160e01b03198216635a05180f60e01b14806105ec57506105ec8261146d565b6000818152600260205260408120546001600160a01b0316806105ec57604051637e27328960e01b8152600481018490526024016106d4565b6109628383836001611492565b60008281526006602052604090206110788282612441565b506040518281527ff8e1a15aba9398e019f0b49df1a4fde98ee17ae345cb5f6b5e2c27f5033e8ce79060200160405180910390a15050565b60006110bd848484611598565b949350505050565b6106f58133611665565b6000806110dc848461169e565b90508015610da2576000848152600c602052604090206110fc9084611732565b509392505050565b6000806111118484611747565b90508015610da2576000848152600c602052604090206110fc90846117b4565b600061114060008360006110b0565b90506001600160a01b03811661070357604051637e27328960e01b8152600481018390526024016106d4565b6000610da283836117c9565b6001600160a01b0382166111aa57604051630b61174360e31b81526001600160a01b03831660048201526024016106d4565b6001600160a01b03838116600081815260056020908152604080832094871680845294825291829020805460ff191686151590811790915591519182527f17307eab39ab6107e8899845ad3d59bd9653f200f220920489ca2b5937696c31910160405180910390a3505050565b6001600160a01b0383163b156107fc57604051630a85bd0160e11b81526001600160a01b0384169063150b7a0290611259903390889087908790600401612501565b6020604051808303816000875af1925050508015611294575060408051601f3d908101601f191682019092526112919181019061253e565b60015b6112fd573d8080156112c2576040519150601f19603f3d011682016040523d82523d6000602084013e6112c7565b606091505b5080516000036112f557604051633250574960e11b81526001600160a01b03851660048201526024016106d4565b805181602001fd5b6001600160e01b03198116630a85bd0160e11b1461133957604051633250574960e11b81526001600160a01b03851660048201526024016106d4565b5050505050565b606061134b8261101a565b506000828152600660205260408120805461136590612332565b80601f016020809104026020016040519081016040528092919081815260200182805461139190612332565b80156113de5780601f106113b3576101008083540402835291602001916113de565b820191906000526020600020905b8154815290600101906020018083116113c157829003601f168201915b5050505050905060006113fc60408051602081019091526000815290565b9050805160000361140e575092915050565b81511561144057808260405160200161142892919061255b565b60405160208183030381529060405292505050919050565b6110bd846117f3565b60006105ec825490565b610703828260405180602001604052806000815250611867565b60006001600160e01b03198216637965db0b60e01b14806105ec57506105ec8261187e565b80806114a657506001600160a01b03821615155b156115685760006114b68461101a565b90506001600160a01b038316158015906114e25750826001600160a01b0316816001600160a01b031614155b80156114f557506114f38184610fc7565b155b1561151e5760405163a9fbf51f60e01b81526001600160a01b03841660048201526024016106d4565b81156115665783856001600160a01b0316826001600160a01b03167f8c5be1e5ebec7d5bd14f71427d1e84f3dd0314c0f7b2291e5b200ac8c7c3b92560405160405180910390a45b505b5050600090815260046020526040902080546001600160a01b0319166001600160a01b0392909216919091179055565b6000806115a68585856118a3565b90506001600160a01b038116611603576115fe84600980546000838152600a60205260408120829055600182018355919091527f6e1540171b6c0c960b71a7020d9f60077f6af931a8bbf590da0223dacf75c7af0155565b611626565b846001600160a01b0316816001600160a01b03161461162657611626818561199c565b6001600160a01b0385166116425761163d84611a2d565b6110bd565b846001600160a01b0316816001600160a01b0316146110bd576110bd8585611adc565b61166f8282610da9565b6107035760405163e2517d3f60e01b81526001600160a01b0382166004820152602481018390526044016106d4565b60006116aa8383610da9565b61172a576000838152600b602090815260408083206001600160a01b03861684529091529020805460ff191660011790556116e23390565b6001600160a01b0316826001600160a01b0316847f2f8788117e7eff1d82e926ec794901d17c78024a50270940304540a733656f0d60405160405180910390a45060016105ec565b5060006105ec565b6000610da2836001600160a01b038416611b2c565b60006117538383610da9565b1561172a576000838152600b602090815260408083206001600160a01b0386168085529252808320805460ff1916905551339286917ff6391f5c32d9c69d2a47ea670b442974b53935d1edc7fd64eb21e047a839171b9190a45060016105ec565b6000610da2836001600160a01b038416611b73565b60008260000182815481106117e0576117e06123b4565b9060005260206000200154905092915050565b60606117fe8261101a565b50600061181660408051602081019091526000815290565b905060008151116118365760405180602001604052806000815250610da2565b8061184084611c66565b60405160200161185192919061255b565b6040516020818303038152906040529392505050565b6118718383611cf9565b6109626000848484611217565b60006001600160e01b0319821663780e9d6360e01b14806105ec57506105ec82611d5e565b6000828152600260205260408120546001600160a01b03908116908316156118d0576118d0818486611d83565b6001600160a01b0381161561190e576118ed600085600080611492565b6001600160a01b038116600090815260036020526040902080546000190190555b6001600160a01b0385161561193d576001600160a01b0385166000908152600360205260409020805460010190555b60008481526002602052604080822080546001600160a01b0319166001600160a01b0389811691821790925591518793918516917fddf252ad1be2c89b69c2b068fc378daa952ba7f163c4a11628f55a4df523b3ef91a4949350505050565b60006119a783610c8d565b6000838152600860205260409020549091508082146119fa576001600160a01b03841660009081526007602090815260408083208584528252808320548484528184208190558352600890915290208190555b5060009182526008602090815260408084208490556001600160a01b039094168352600781528383209183525290812055565b600954600090611a3f9060019061258a565b6000838152600a602052604081205460098054939450909284908110611a6757611a676123b4565b906000526020600020015490508060098381548110611a8857611a886123b4565b6000918252602080832090910192909255828152600a90915260408082208490558582528120556009805480611ac057611ac061259d565b6001900381819060005260206000200160009055905550505050565b60006001611ae984610c8d565b611af3919061258a565b6001600160a01b039093166000908152600760209081526040808320868452825280832085905593825260089052919091209190915550565b600081815260018301602052604081205461172a575081546001818101845560008481526020808220909301849055845484825282860190935260409020919091556105ec565b60008181526001830160205260408120548015611c5c576000611b9760018361258a565b8554909150600090611bab9060019061258a565b9050808214611c10576000866000018281548110611bcb57611bcb6123b4565b9060005260206000200154905080876000018481548110611bee57611bee6123b4565b6000918252602080832090910192909255918252600188019052604090208390555b8554869080611c2157611c2161259d565b6001900381819060005260206000200160009055905585600101600086815260200190815260200160002060009055600193505050506105ec565b60009150506105ec565b60606000611c7383611de7565b600101905060008167ffffffffffffffff811115611c9357611c93612082565b6040519080825280601f01601f191660200182016040528015611cbd576020820181803683370190505b5090508181016020015b600019016f181899199a1a9b1b9c1cb0b131b232b360811b600a86061a8153600a8504945084611cc757509392505050565b6001600160a01b038216611d2357604051633250574960e11b8152600060048201526024016106d4565b6000611d31838360006110b0565b90506001600160a01b03811615610962576040516339e3563760e11b8152600060048201526024016106d4565b60006001600160e01b03198216632483248360e11b14806105ec57506105ec82611ebf565b611d8e838383611f0f565b610962576001600160a01b038316611dbc57604051637e27328960e01b8152600481018290526024016106d4565b60405163177e802f60e01b81526001600160a01b0383166004820152602481018290526044016106d4565b60008072184f03e93ff9f4daa797ed6e38ed64bf6a1f0160401b8310611e265772184f03e93ff9f4daa797ed6e38ed64bf6a1f0160401b830492506040015b6d04ee2d6d415b85acef81000000008310611e52576d04ee2d6d415b85acef8100000000830492506020015b662386f26fc100008310611e7057662386f26fc10000830492506010015b6305f5e1008310611e88576305f5e100830492506008015b6127108310611e9c57612710830492506004015b60648310611eae576064830492506002015b600a83106105ec5760010192915050565b60006001600160e01b031982166380ac58cd60e01b1480611ef057506001600160e01b03198216635b5e139f60e01b145b806105ec57506301ffc9a760e01b6001600160e01b03198316146105ec565b60006001600160a01b038316158015906110bd5750826001600160a01b0316846001600160a01b03161480611f495750611f498484610fc7565b806110bd5750506000908152600460205260409020546001600160a01b03908116911614919050565b6001600160e01b0319811681146106f557600080fd5b600060208284031215611f9a57600080fd5b8135610da281611f72565b60005b83811015611fc0578181015183820152602001611fa8565b50506000910152565b60008151808452611fe1816020860160208601611fa5565b601f01601f19169290920160200192915050565b602081526000610da26020830184611fc9565b60006020828403121561201a57600080fd5b5035919050565b80356001600160a01b038116811461203857600080fd5b919050565b60006020828403121561204f57600080fd5b610da282612021565b6000806040838503121561206b57600080fd5b61207483612021565b946020939093013593505050565b634e487b7160e01b600052604160045260246000fd5b600067ffffffffffffffff808411156120b3576120b3612082565b604051601f8501601f19908116603f011681019082821181831017156120db576120db612082565b816040528093508581528686860111156120f457600080fd5b858560208301376000602087830101525050509392505050565b600082601f83011261211f57600080fd5b610da283833560208501612098565b6000806040838503121561214157600080fd5b82359150602083013567ffffffffffffffff81111561215f57600080fd5b61216b8582860161210e565b9150509250929050565b60008060006060848603121561218a57600080fd5b61219384612021565b92506121a160208501612021565b9150604084013590509250925092565b600080604083850312156121c457600080fd5b823591506121d460208401612021565b90509250929050565b8035801515811461203857600080fd5b6000602082840312156121ff57600080fd5b610da2826121dd565b6000806040838503121561221b57600080fd5b50508035926020909101359150565b6000806040838503121561223d57600080fd5b61224683612021565b91506121d4602084016121dd565b6000806000806080858703121561226a57600080fd5b61227385612021565b935061228160208601612021565b925060408501359150606085013567ffffffffffffffff8111156122a457600080fd5b8501601f810187136122b557600080fd5b6122c487823560208401612098565b91505092959194509250565b600080604083850312156122e357600080fd5b6122ec83612021565b9150602083013567ffffffffffffffff81111561215f57600080fd5b6000806040838503121561231b57600080fd5b61232483612021565b91506121d460208401612021565b600181811c9082168061234657607f821691505b60208210810361236657634e487b7160e01b600052602260045260246000fd5b50919050565b60208082526028908201527f43616c6c657220646f6573206e6f742068617320612044454641554c545f41446040820152674d494e5f524f4c4560c01b606082015260800190565b634e487b7160e01b600052603260045260246000fd5b634e487b7160e01b600052601160045260246000fd5b808201808211156105ec576105ec6123ca565b601f82111561096257600081815260208120601f850160051c8101602086101561241a5750805b601f850160051c820191505b8181101561243957828155600101612426565b505050505050565b815167ffffffffffffffff81111561245b5761245b612082565b61246f816124698454612332565b846123f3565b602080601f8311600181146124a4576000841561248c5750858301515b600019600386901b1c1916600185901b178555612439565b600085815260208120601f198616915b828110156124d3578886015182559484019460019091019084016124b4565b50858210156124f15787850151600019600388901b60f8161c191681555b5050505050600190811b01905550565b6001600160a01b038581168252841660208201526040810183905260806060820181905260009061253490830184611fc9565b9695505050505050565b60006020828403121561255057600080fd5b8151610da281611f72565b6000835161256d818460208801611fa5565b835190830190612581818360208801611fa5565b01949350505050565b818103818111156105ec576105ec6123ca565b634e487b7160e01b600052603160045260246000fdfe3c11d16cbaffd01df69ce1c404f6340ee057498f5f00246190ea54220576a8489f2df0fed2c77648de5860a4cc508cd0818c85b8b8a1ab4ceeef8d981c8956a6a26469706673582212202eca2958ff58e2f34e3a25f1d4f123c598671e0f4bc42e871cfd3b348003185664736f6c63430008140033",
  "linkReferences": {},
  "deployedLinkReferences": {}
}