{"contracts/PalmToken.sol":{"ACL":{"abi":[{"inputs":[],"name":"AccessControlBadConfirmation","type":"error"},{"inputs":[{"internalType":"address","name":"account","type":"address"},{"internalType":"bytes32","name":"neededRole","type":"bytes32"}],"name":"AccessControlUnauthorizedAccount","type":"error"},{"anonymous":false,"inputs":[{"indexed":true,"internalType":"bytes32","name":"role","type":"bytes32"},{"indexed":true,"internalType":"bytes32","name":"previousAdminRole","type":"bytes32"},{"indexed":true,"internalType":"bytes32","name":"newAdminRole","type":"bytes32"}],"name":"RoleAdminChanged","type":"event"},{"anonymous":false,"inputs":[{"indexed":true,"internalType":"bytes32","name":"role","type":"bytes32"},{"indexed":true,"internalType":"address","name":"account","type":"address"},{"indexed":true,"internalType":"address","name":"sender","type":"address"}],"name":"RoleGranted","type":"event"},{"anonymous":false,"inputs":[{"indexed":true,"internalType":"bytes32","name":"role","type":"bytes32"},{"indexed":true,"internalType":"address","name":"account","type":"address"},{"indexed":true,"internalType":"address","name":"sender","type":"address"}],"name":"RoleRevoked","type":"event"},{"inputs":[],"name":"BURNER_ROLE","outputs":[{"internalType":"bytes32","name":"","type":"bytes32"}],"stateMutability":"view","type":"function"},{"inputs":[],"name":"DEFAULT_ADMIN_ROLE","outputs":[{"internalType":"bytes32","name":"","type":"bytes32"}],"stateMutability":"view","type":"function"},{"inputs":[],"name":"MINTER_ROLE","outputs":[{"internalType":"bytes32","name":"","type":"bytes32"}],"stateMutability":"view","type":"function"},{"inputs":[],"name":"PAUSER_ROLE","outputs":[{"internalType":"bytes32","name":"","type":"bytes32"}],"stateMutability":"view","type":"function"},{"inputs":[{"internalType":"bytes32","name":"role","type":"bytes32"}],"name":"getRoleAdmin","outputs":[{"internalType":"bytes32","name":"","type":"bytes32"}],"stateMutability":"view","type":"function"},{"inputs":[{"internalType":"bytes32","name":"role","type":"bytes32"},{"internalType":"uint256","name":"index","type":"uint256"}],"name":"getRoleMember","outputs":[{"internalType":"address","name":"","type":"address"}],"stateMutability":"view","type":"function"},{"inputs":[{"internalType":"bytes32","name":"role","type":"bytes32"}],"name":"getRoleMemberCount","outputs":[{"internalType":"uint256","name":"","type":"uint256"}],"stateMutability":"view","type":"function"},{"inputs":[{"internalType":"address","name":"admin","type":"address"}],"name":"grantAdmin","outputs":[],"stateMutability":"nonpayable","type":"function"},{"inputs":[{"internalType":"address","name":"burner","type":"address"}],"name":"grantBurner","outputs":[],"stateMutability":"nonpayable","type":"function"},{"inputs":[{"internalType":"address","name":"minter","type":"address"}],"name":"grantMinter","outputs":[],"stateMutability":"nonpayable","type":"function"},{"inputs":[{"internalType":"address","name":"pauser","type":"address"}],"name":"grantPauser","outputs":[],"stateMutability":"nonpayable","type":"function"},{"inputs":[{"internalType":"bytes32","name":"role","type":"bytes32"},{"internalType":"address","name":"account","type":"address"}],"name":"grantRole","outputs":[],"stateMutability":"nonpayable","type":"function"},{"inputs":[{"internalType":"bytes32","name":"role","type":"bytes32"},{"internalType":"address","name":"account","type":"address"}],"name":"hasRole","outputs":[{"internalType":"bool","name":"","type":"bool"}],"stateMutability":"view","type":"function"},{"inputs":[{"internalType":"bytes32","name":"role","type":"bytes32"},{"internalType":"address","name":"callerConfirmation","type":"address"}],"name":"renounceRole","outputs":[],"stateMutability":"nonpayable","type":"function"},{"inputs":[{"internalType":"address","name":"admin","type":"address"}],"name":"revokeAdmin","outputs":[],"stateMutability":"nonpayable","type":"function"},{"inputs":[{"internalType":"address","name":"burner","type":"address"}],"name":"revokeBurner","outputs":[],"stateMutability":"nonpayable","type":"function"},{"inputs":[{"internalType":"address","name":"minter","type":"address"}],"name":"revokeMinter","outputs":[],"stateMutability":"nonpayable","type":"function"},{"inputs":[{"internalType":"address","name":"pauser","type":"address"}],"name":"revokePauser","outputs":[],"stateMutability":"nonpayable","type":"function"},{"inputs":[{"internalType":"bytes32","name":"role","type":"bytes32"},{"internalType":"address","name":"account","type":"address"}],"name":"revokeRole","outputs":[],"stateMutability":"nonpayable","type":"function"},{"inputs":[{"internalType":"bytes4","name":"interfaceId","type":"bytes4"}],"name":"supportsInterface","outputs":[{"internalType":"bool","name":"","type":"bool"}],"stateMutability":"view","type":"function"}],"devdoc":{"errors":{"AccessControlBadConfirmation()":[{"details":"The caller of a function is not the expected one. NOTE: Don't confuse with {AccessControlUnauthorizedAccount}."}],"AccessControlUnauthorizedAccount(address,bytes32)":[{"details":"The `account` is missing a role."}]},"events":{"RoleAdminChanged(bytes32,bytes32,bytes32)":{"details":"Emitted when `newAdminRole` is set as ``role``'s admin role, replacing `previousAdminRole` `DEFAULT_ADMIN_ROLE` is the starting admin for all roles, despite {RoleAdminChanged} not being emitted signaling this."},"RoleGranted(bytes32,address,address)":{"details":"Emitted when `account` is granted `role`. `sender` is the account that originated the contract call, an admin role bearer except when using {AccessControl-_setupRole}."},"RoleRevoked(bytes32,address,address)":{"details":"Emitted when `account` is revoked `role`. `sender` is the account that originated the contract call:   - if using `revokeRole`, it is the admin role bearer   - if using `renounceRole`, it is the role bearer (i.e. `account`)"}},"kind":"dev","methods":{"getRoleAdmin(bytes32)":{"details":"Returns the admin role that controls `role`. See {grantRole} and {revokeRole}. To change a role's admin, use {_setRoleAdmin}."},"getRoleMember(bytes32,uint256)":{"details":"Returns one of the accounts that have `role`. `index` must be a value between 0 and {getRoleMemberCount}, non-inclusive. Role bearers are not sorted in any particular way, and their ordering may change at any point. WARNING: When using {getRoleMember} and {getRoleMemberCount}, make sure you perform all queries on the same block. See the following https://forum.openzeppelin.com/t/iterating-over-elements-on-enumerableset-in-openzeppelin-contracts/2296[forum post] for more information."},"getRoleMemberCount(bytes32)":{"details":"Returns the number of accounts that have `role`. Can be used together with {getRoleMember} to enumerate all bearers of a role."},"grantRole(bytes32,address)":{"details":"Grants `role` to `account`. If `account` had not been already granted `role`, emits a {RoleGranted} event. Requirements: - the caller must have ``role``'s admin role. May emit a {RoleGranted} event."},"hasRole(bytes32,address)":{"details":"Returns `true` if `account` has been granted `role`."},"renounceRole(bytes32,address)":{"details":"Revokes `role` from the calling account. Roles are often managed via {grantRole} and {revokeRole}: this function's purpose is to provide a mechanism for accounts to lose their privileges if they are compromised (such as when a trusted device is misplaced). If the calling account had been revoked `role`, emits a {RoleRevoked} event. Requirements: - the caller must be `callerConfirmation`. May emit a {RoleRevoked} event."},"revokeRole(bytes32,address)":{"details":"Revokes `role` from `account`. If `account` had been granted `role`, emits a {RoleRevoked} event. Requirements: - the caller must have ``role``'s admin role. May emit a {RoleRevoked} event."},"supportsInterface(bytes4)":{"details":"See {IERC165-supportsInterface}."}},"version":1},"evm":{"bytecode":{"linkReferences":{},"object":"608060405234801561001057600080fd5b50610ba1806100206000396000f3fe608060405234801561001057600080fd5b506004361061012c5760003560e01c806336568abe116100ad578063ca15c87311610071578063ca15c873146102a4578063cfbd4885146102b7578063d5391393146102ca578063d547741f146102f1578063e63ab1e91461030457600080fd5b806336568abe146102385780637fe76df01461024b5780639010d07c1461025e57806391d1485414610289578063a217fddf1461029c57600080fd5b8063261707fa116100f4578063261707fa146101c5578063282c51f3146101d85780632d345670146101ff5780632f2ff15d1461021257806335bb3e161461022557600080fd5b806301ffc9a7146101315780630900cc331461015957806309c1d95f1461016e57806310511f9614610181578063248a9ca314610194575b600080fd5b61014461013f366004610a0e565b61032b565b60405190151581526020015b60405180910390f35b61016c610167366004610a54565b610356565b005b61016c61017c366004610a54565b6103b3565b61016c61018f366004610a54565b610404565b6101b76101a2366004610a6f565b60009081526020819052604090206001015490565b604051908152602001610150565b61016c6101d3366004610a54565b610455565b6101b77f3c11d16cbaffd01df69ce1c404f6340ee057498f5f00246190ea54220576a84881565b61016c61020d366004610a54565b6104a6565b61016c610220366004610a88565b6104d8565b61016c610233366004610a54565b610503565b61016c610246366004610a88565b610535565b61016c610259366004610a54565b61056d565b61027161026c366004610ab4565b6105be565b6040516001600160a01b039091168152602001610150565b610144610297366004610a88565b6105dd565b6101b7600081565b6101b76102b2366004610a6f565b610606565b61016c6102c5366004610a54565b61061d565b6101b77f9f2df0fed2c77648de5860a4cc508cd0818c85b8b8a1ab4ceeef8d981c8956a681565b61016c6102ff366004610a88565b61066a565b6101b77f65d7a28e3265b37a6474929f336521b332c1681b933f6cb9f3376673440d862a81565b60006001600160e01b03198216635a05180f60e01b148061035057506103508261068f565b92915050565b6103616000336105dd565b6103865760405162461bcd60e51b815260040161037d90610ad6565b60405180910390fd5b6103b07f3c11d16cbaffd01df69ce1c404f6340ee057498f5f00246190ea54220576a8488261066a565b50565b6103be6000336105dd565b6103da5760405162461bcd60e51b815260040161037d90610ad6565b6103b07f65d7a28e3265b37a6474929f336521b332c1681b933f6cb9f3376673440d862a826104d8565b61040f6000336105dd565b61042b5760405162461bcd60e51b815260040161037d90610ad6565b6103b07f3c11d16cbaffd01df69ce1c404f6340ee057498f5f00246190ea54220576a848826104d8565b6104606000336105dd565b61047c5760405162461bcd60e51b815260040161037d90610ad6565b6103b07f9f2df0fed2c77648de5860a4cc508cd0818c85b8b8a1ab4ceeef8d981c8956a6826104d8565b6104b16000336105dd565b6104cd5760405162461bcd60e51b815260040161037d90610ad6565b6103b060008261066a565b6000828152602081905260409020600101546104f3816106c4565b6104fd83836106ce565b50505050565b61050e6000336105dd565b61052a5760405162461bcd60e51b815260040161037d90610ad6565b6103b06000826104d8565b6001600160a01b038116331461055e5760405163334bd91960e11b815260040160405180910390fd5b6105688282610703565b505050565b6105786000336105dd565b6105945760405162461bcd60e51b815260040161037d90610ad6565b6103b07f65d7a28e3265b37a6474929f336521b332c1681b933f6cb9f3376673440d862a8261066a565b60008281526001602052604081206105d69083610730565b9392505050565b6000918252602082815260408084206001600160a01b0393909316845291905290205460ff1690565b60008181526001602052604081206103509061073c565b6106286000336105dd565b6106445760405162461bcd60e51b815260040161037d90610ad6565b6103b07f9f2df0fed2c77648de5860a4cc508cd0818c85b8b8a1ab4ceeef8d981c8956a6825b600082815260208190526040902060010154610685816106c4565b6104fd8383610703565b60006001600160e01b03198216637965db0b60e01b148061035057506301ffc9a760e01b6001600160e01b0319831614610350565b6103b08133610746565b6000806106db8484610783565b905080156105d65760008481526001602052604090206106fb9084610815565b509392505050565b600080610710848461082a565b905080156105d65760008481526001602052604090206106fb9084610895565b60006105d683836108aa565b6000610350825490565b61075082826105dd565b61077f5760405163e2517d3f60e01b81526001600160a01b03821660048201526024810183905260440161037d565b5050565b600061078f83836105dd565b61080d576000838152602081815260408083206001600160a01b03861684529091529020805460ff191660011790556107c53390565b6001600160a01b0316826001600160a01b0316847f2f8788117e7eff1d82e926ec794901d17c78024a50270940304540a733656f0d60405160405180910390a4506001610350565b506000610350565b60006105d6836001600160a01b0384166108d4565b600061083683836105dd565b1561080d576000838152602081815260408083206001600160a01b0386168085529252808320805460ff1916905551339286917ff6391f5c32d9c69d2a47ea670b442974b53935d1edc7fd64eb21e047a839171b9190a4506001610350565b60006105d6836001600160a01b03841661091b565b60008260000182815481106108c1576108c1610b1e565b9060005260206000200154905092915050565b600081815260018301602052604081205461080d57508154600181810184556000848152602080822090930184905584548482528286019093526040902091909155610350565b60008181526001830160205260408120548015610a0457600061093f600183610b34565b855490915060009061095390600190610b34565b90508082146109b857600086600001828154811061097357610973610b1e565b906000526020600020015490508087600001848154811061099657610996610b1e565b6000918252602080832090910192909255918252600188019052604090208390555b85548690806109c9576109c9610b55565b600190038181906000526020600020016000905590558560010160008681526020019081526020016000206000905560019350505050610350565b6000915050610350565b600060208284031215610a2057600080fd5b81356001600160e01b0319811681146105d657600080fd5b80356001600160a01b0381168114610a4f57600080fd5b919050565b600060208284031215610a6657600080fd5b6105d682610a38565b600060208284031215610a8157600080fd5b5035919050565b60008060408385031215610a9b57600080fd5b82359150610aab60208401610a38565b90509250929050565b60008060408385031215610ac757600080fd5b50508035926020909101359150565b60208082526028908201527f43616c6c657220646f6573206e6f742068617320612044454641554c545f41446040820152674d494e5f524f4c4560c01b606082015260800190565b634e487b7160e01b600052603260045260246000fd5b8181038181111561035057634e487b7160e01b600052601160045260246000fd5b634e487b7160e01b600052603160045260246000fdfea2646970667358221220af91c471cf448be97a21a58b4b11b0beebe33d519c434832299d7785663bd54064736f6c63430008140033","opcodes":"PUSH1 0x80 PUSH1 0x40 MSTORE CALLVALUE DUP1 ISZERO PUSH2 0x10 JUMPI PUSH1 0x0 DUP1 REVERT JUMPDEST POP PUSH2 0xBA1 DUP1 PUSH2 0x20 PUSH1 0x0 CODECOPY PUSH1 0x0 RETURN INVALID PUSH1 0x80 PUSH1 0x40 MSTORE CALLVALUE DUP1 ISZERO PUSH2 0x10 JUMPI PUSH1 0x0 DUP1 REVERT JUMPDEST POP PUSH1 0x4 CALLDATASIZE LT PUSH2 0x12C JUMPI PUSH1 0x0 CALLDATALOAD PUSH1 0xE0 SHR DUP1 PUSH4 0x36568ABE GT PUSH2 0xAD JUMPI DUP1 PUSH4 0xCA15C873 GT PUSH2 0x71 JUMPI DUP1 PUSH4 0xCA15C873 EQ PUSH2 0x2A4 JUMPI DUP1 PUSH4 0xCFBD4885 EQ PUSH2 0x2B7 JUMPI DUP1 PUSH4 0xD5391393 EQ PUSH2 0x2CA JUMPI DUP1 PUSH4 0xD547741F EQ PUSH2 0x2F1 JUMPI DUP1 PUSH4 0xE63AB1E9 EQ PUSH2 0x304 JUMPI PUSH1 0x0 DUP1 REVERT JUMPDEST DUP1 PUSH4 0x36568ABE EQ PUSH2 0x238 JUMPI DUP1 PUSH4 0x7FE76DF0 EQ PUSH2 0x24B JUMPI DUP1 PUSH4 0x9010D07C EQ PUSH2 0x25E JUMPI DUP1 PUSH4 0x91D14854 EQ PUSH2 0x289 JUMPI DUP1 PUSH4 0xA217FDDF EQ PUSH2 0x29C JUMPI PUSH1 0x0 DUP1 REVERT JUMPDEST DUP1 PUSH4 0x261707FA GT PUSH2 0xF4 JUMPI DUP1 PUSH4 0x261707FA EQ PUSH2 0x1C5 JUMPI DUP1 PUSH4 0x282C51F3 EQ PUSH2 0x1D8 JUMPI DUP1 PUSH4 0x2D345670 EQ PUSH2 0x1FF JUMPI DUP1 PUSH4 0x2F2FF15D EQ PUSH2 0x212 JUMPI DUP1 PUSH4 0x35BB3E16 EQ PUSH2 0x225 JUMPI PUSH1 0x0 DUP1 REVERT JUMPDEST DUP1 PUSH4 0x1FFC9A7 EQ PUSH2 0x131 JUMPI DUP1 PUSH4 0x900CC33 EQ PUSH2 0x159 JUMPI DUP1 PUSH4 0x9C1D95F EQ PUSH2 0x16E JUMPI DUP1 PUSH4 0x10511F96 EQ PUSH2 0x181 JUMPI DUP1 PUSH4 0x248A9CA3 EQ PUSH2 0x194 JUMPI JUMPDEST PUSH1 0x0 DUP1 REVERT JUMPDEST PUSH2 0x144 PUSH2 0x13F CALLDATASIZE PUSH1 0x4 PUSH2 0xA0E JUMP JUMPDEST PUSH2 0x32B JUMP JUMPDEST PUSH1 0x40 MLOAD SWAP1 ISZERO ISZERO DUP2 MSTORE PUSH1 0x20 ADD JUMPDEST PUSH1 0x40 MLOAD DUP1 SWAP2 SUB SWAP1 RETURN JUMPDEST PUSH2 0x16C PUSH2 0x167 CALLDATASIZE PUSH1 0x4 PUSH2 0xA54 JUMP JUMPDEST PUSH2 0x356 JUMP JUMPDEST STOP JUMPDEST PUSH2 0x16C PUSH2 0x17C CALLDATASIZE PUSH1 0x4 PUSH2 0xA54 JUMP JUMPDEST PUSH2 0x3B3 JUMP JUMPDEST PUSH2 0x16C PUSH2 0x18F CALLDATASIZE PUSH1 0x4 PUSH2 0xA54 JUMP JUMPDEST PUSH2 0x404 JUMP JUMPDEST PUSH2 0x1B7 PUSH2 0x1A2 CALLDATASIZE PUSH1 0x4 PUSH2 0xA6F JUMP JUMPDEST PUSH1 0x0 SWAP1 DUP2 MSTORE PUSH1 0x20 DUP2 SWAP1 MSTORE PUSH1 0x40 SWAP1 KECCAK256 PUSH1 0x1 ADD SLOAD SWAP1 JUMP JUMPDEST PUSH1 0x40 MLOAD SWAP1 DUP2 MSTORE PUSH1 0x20 ADD PUSH2 0x150 JUMP JUMPDEST PUSH2 0x16C PUSH2 0x1D3 CALLDATASIZE PUSH1 0x4 PUSH2 0xA54 JUMP JUMPDEST PUSH2 0x455 JUMP JUMPDEST PUSH2 0x1B7 PUSH32 0x3C11D16CBAFFD01DF69CE1C404F6340EE057498F5F00246190EA54220576A848 DUP2 JUMP JUMPDEST PUSH2 0x16C PUSH2 0x20D CALLDATASIZE PUSH1 0x4 PUSH2 0xA54 JUMP JUMPDEST PUSH2 0x4A6 JUMP JUMPDEST PUSH2 0x16C PUSH2 0x220 CALLDATASIZE PUSH1 0x4 PUSH2 0xA88 JUMP JUMPDEST PUSH2 0x4D8 JUMP JUMPDEST PUSH2 0x16C PUSH2 0x233 CALLDATASIZE PUSH1 0x4 PUSH2 0xA54 JUMP JUMPDEST PUSH2 0x503 JUMP JUMPDEST PUSH2 0x16C PUSH2 0x246 CALLDATASIZE PUSH1 0x4 PUSH2 0xA88 JUMP JUMPDEST PUSH2 0x535 JUMP JUMPDEST PUSH2 0x16C PUSH2 0x259 CALLDATASIZE PUSH1 0x4 PUSH2 0xA54 JUMP JUMPDEST PUSH2 0x56D JUMP JUMPDEST PUSH2 0x271 PUSH2 0x26C CALLDATASIZE PUSH1 0x4 PUSH2 0xAB4 JUMP JUMPDEST PUSH2 0x5BE JUMP JUMPDEST PUSH1 0x40 MLOAD PUSH1 0x1 PUSH1 0x1 PUSH1 0xA0 SHL SUB SWAP1 SWAP2 AND DUP2 MSTORE PUSH1 0x20 ADD PUSH2 0x150 JUMP JUMPDEST PUSH2 0x144 PUSH2 0x297 CALLDATASIZE PUSH1 0x4 PUSH2 0xA88 JUMP JUMPDEST PUSH2 0x5DD JUMP JUMPDEST PUSH2 0x1B7 PUSH1 0x0 DUP2 JUMP JUMPDEST PUSH2 0x1B7 PUSH2 0x2B2 CALLDATASIZE PUSH1 0x4 PUSH2 0xA6F JUMP JUMPDEST PUSH2 0x606 JUMP JUMPDEST PUSH2 0x16C PUSH2 0x2C5 CALLDATASIZE PUSH1 0x4 PUSH2 0xA54 JUMP JUMPDEST PUSH2 0x61D JUMP JUMPDEST PUSH2 0x1B7 PUSH32 0x9F2DF0FED2C77648DE5860A4CC508CD0818C85B8B8A1AB4CEEEF8D981C8956A6 DUP2 JUMP JUMPDEST PUSH2 0x16C PUSH2 0x2FF CALLDATASIZE PUSH1 0x4 PUSH2 0xA88 JUMP JUMPDEST PUSH2 0x66A JUMP JUMPDEST PUSH2 0x1B7 PUSH32 0x65D7A28E3265B37A6474929F336521B332C1681B933F6CB9F3376673440D862A DUP2 JUMP JUMPDEST PUSH1 0x0 PUSH1 0x1 PUSH1 0x1 PUSH1 0xE0 SHL SUB NOT DUP3 AND PUSH4 0x5A05180F PUSH1 0xE0 SHL EQ DUP1 PUSH2 0x350 JUMPI POP PUSH2 0x350 DUP3 PUSH2 0x68F JUMP JUMPDEST SWAP3 SWAP2 POP POP JUMP JUMPDEST PUSH2 0x361 PUSH1 0x0 CALLER PUSH2 0x5DD JUMP JUMPDEST PUSH2 0x386 JUMPI PUSH1 0x40 MLOAD PUSH3 0x461BCD PUSH1 0xE5 SHL DUP2 MSTORE PUSH1 0x4 ADD PUSH2 0x37D SWAP1 PUSH2 0xAD6 JUMP JUMPDEST PUSH1 0x40 MLOAD DUP1 SWAP2 SUB SWAP1 REVERT JUMPDEST PUSH2 0x3B0 PUSH32 0x3C11D16CBAFFD01DF69CE1C404F6340EE057498F5F00246190EA54220576A848 DUP3 PUSH2 0x66A JUMP JUMPDEST POP JUMP JUMPDEST PUSH2 0x3BE PUSH1 0x0 CALLER PUSH2 0x5DD JUMP JUMPDEST PUSH2 0x3DA JUMPI PUSH1 0x40 MLOAD PUSH3 0x461BCD PUSH1 0xE5 SHL DUP2 MSTORE PUSH1 0x4 ADD PUSH2 0x37D SWAP1 PUSH2 0xAD6 JUMP JUMPDEST PUSH2 0x3B0 PUSH32 0x65D7A28E3265B37A6474929F336521B332C1681B933F6CB9F3376673440D862A DUP3 PUSH2 0x4D8 JUMP JUMPDEST PUSH2 0x40F PUSH1 0x0 CALLER PUSH2 0x5DD JUMP JUMPDEST PUSH2 0x42B JUMPI PUSH1 0x40 MLOAD PUSH3 0x461BCD PUSH1 0xE5 SHL DUP2 MSTORE PUSH1 0x4 ADD PUSH2 0x37D SWAP1 PUSH2 0xAD6 JUMP JUMPDEST PUSH2 0x3B0 PUSH32 0x3C11D16CBAFFD01DF69CE1C404F6340EE057498F5F00246190EA54220576A848 DUP3 PUSH2 0x4D8 JUMP JUMPDEST PUSH2 0x460 PUSH1 0x0 CALLER PUSH2 0x5DD JUMP JUMPDEST PUSH2 0x47C JUMPI PUSH1 0x40 MLOAD PUSH3 0x461BCD PUSH1 0xE5 SHL DUP2 MSTORE PUSH1 0x4 ADD PUSH2 0x37D SWAP1 PUSH2 0xAD6 JUMP JUMPDEST PUSH2 0x3B0 PUSH32 0x9F2DF0FED2C77648DE5860A4CC508CD0818C85B8B8A1AB4CEEEF8D981C8956A6 DUP3 PUSH2 0x4D8 JUMP JUMPDEST PUSH2 0x4B1 PUSH1 0x0 CALLER PUSH2 0x5DD JUMP JUMPDEST PUSH2 0x4CD JUMPI PUSH1 0x40 MLOAD PUSH3 0x461BCD PUSH1 0xE5 SHL DUP2 MSTORE PUSH1 0x4 ADD PUSH2 0x37D SWAP1 PUSH2 0xAD6 JUMP JUMPDEST PUSH2 0x3B0 PUSH1 0x0 DUP3 PUSH2 0x66A JUMP JUMPDEST PUSH1 0x0 DUP3 DUP2 MSTORE PUSH1 0x20 DUP2 SWAP1 MSTORE PUSH1 0x40 SWAP1 KECCAK256 PUSH1 0x1 ADD SLOAD PUSH2 0x4F3 DUP2 PUSH2 0x6C4 JUMP JUMPDEST PUSH2 0x4FD DUP4 DUP4 PUSH2 0x6CE JUMP JUMPDEST POP POP POP POP JUMP JUMPDEST PUSH2 0x50E PUSH1 0x0 CALLER PUSH2 0x5DD JUMP JUMPDEST PUSH2 0x52A JUMPI PUSH1 0x40 MLOAD PUSH3 0x461BCD PUSH1 0xE5 SHL DUP2 MSTORE PUSH1 0x4 ADD PUSH2 0x37D SWAP1 PUSH2 0xAD6 JUMP JUMPDEST PUSH2 0x3B0 PUSH1 0x0 DUP3 PUSH2 0x4D8 JUMP JUMPDEST PUSH1 0x1 PUSH1 0x1 PUSH1 0xA0 SHL SUB DUP2 AND CALLER EQ PUSH2 0x55E JUMPI PUSH1 0x40 MLOAD PUSH4 0x334BD919 PUSH1 0xE1 SHL DUP2 MSTORE PUSH1 0x4 ADD PUSH1 0x40 MLOAD DUP1 SWAP2 SUB SWAP1 REVERT JUMPDEST PUSH2 0x568 DUP3 DUP3 PUSH2 0x703 JUMP JUMPDEST POP POP POP JUMP JUMPDEST PUSH2 0x578 PUSH1 0x0 CALLER PUSH2 0x5DD JUMP JUMPDEST PUSH2 0x594 JUMPI PUSH1 0x40 MLOAD PUSH3 0x461BCD PUSH1 0xE5 SHL DUP2 MSTORE PUSH1 0x4 ADD PUSH2 0x37D SWAP1 PUSH2 0xAD6 JUMP JUMPDEST PUSH2 0x3B0 PUSH32 0x65D7A28E3265B37A6474929F336521B332C1681B933F6CB9F3376673440D862A DUP3 PUSH2 0x66A JUMP JUMPDEST PUSH1 0x0 DUP3 DUP2 MSTORE PUSH1 0x1 PUSH1 0x20 MSTORE PUSH1 0x40 DUP2 KECCAK256 PUSH2 0x5D6 SWAP1 DUP4 PUSH2 0x730 JUMP JUMPDEST SWAP4 SWAP3 POP POP POP JUMP JUMPDEST PUSH1 0x0 SWAP2 DUP3 MSTORE PUSH1 0x20 DUP3 DUP2 MSTORE PUSH1 0x40 DUP1 DUP5 KECCAK256 PUSH1 0x1 PUSH1 0x1 PUSH1 0xA0 SHL SUB SWAP4 SWAP1 SWAP4 AND DUP5 MSTORE SWAP2 SWAP1 MSTORE SWAP1 KECCAK256 SLOAD PUSH1 0xFF AND SWAP1 JUMP JUMPDEST PUSH1 0x0 DUP2 DUP2 MSTORE PUSH1 0x1 PUSH1 0x20 MSTORE PUSH1 0x40 DUP2 KECCAK256 PUSH2 0x350 SWAP1 PUSH2 0x73C JUMP JUMPDEST PUSH2 0x628 PUSH1 0x0 CALLER PUSH2 0x5DD JUMP JUMPDEST PUSH2 0x644 JUMPI PUSH1 0x40 MLOAD PUSH3 0x461BCD PUSH1 0xE5 SHL DUP2 MSTORE PUSH1 0x4 ADD PUSH2 0x37D SWAP1 PUSH2 0xAD6 JUMP JUMPDEST PUSH2 0x3B0 PUSH32 0x9F2DF0FED2C77648DE5860A4CC508CD0818C85B8B8A1AB4CEEEF8D981C8956A6 DUP3 JUMPDEST PUSH1 0x0 DUP3 DUP2 MSTORE PUSH1 0x20 DUP2 SWAP1 MSTORE PUSH1 0x40 SWAP1 KECCAK256 PUSH1 0x1 ADD SLOAD PUSH2 0x685 DUP2 PUSH2 0x6C4 JUMP JUMPDEST PUSH2 0x4FD DUP4 DUP4 PUSH2 0x703 JUMP JUMPDEST PUSH1 0x0 PUSH1 0x1 PUSH1 0x1 PUSH1 0xE0 SHL SUB NOT DUP3 AND PUSH4 0x7965DB0B PUSH1 0xE0 SHL EQ DUP1 PUSH2 0x350 JUMPI POP PUSH4 0x1FFC9A7 PUSH1 0xE0 SHL PUSH1 0x1 PUSH1 0x1 PUSH1 0xE0 SHL SUB NOT DUP4 AND EQ PUSH2 0x350 JUMP JUMPDEST PUSH2 0x3B0 DUP2 CALLER PUSH2 0x746 JUMP JUMPDEST PUSH1 0x0 DUP1 PUSH2 0x6DB DUP5 DUP5 PUSH2 0x783 JUMP JUMPDEST SWAP1 POP DUP1 ISZERO PUSH2 0x5D6 JUMPI PUSH1 0x0 DUP5 DUP2 MSTORE PUSH1 0x1 PUSH1 0x20 MSTORE PUSH1 0x40 SWAP1 KECCAK256 PUSH2 0x6FB SWAP1 DUP5 PUSH2 0x815 JUMP JUMPDEST POP SWAP4 SWAP3 POP POP POP JUMP JUMPDEST PUSH1 0x0 DUP1 PUSH2 0x710 DUP5 DUP5 PUSH2 0x82A JUMP JUMPDEST SWAP1 POP DUP1 ISZERO PUSH2 0x5D6 JUMPI PUSH1 0x0 DUP5 DUP2 MSTORE PUSH1 0x1 PUSH1 0x20 MSTORE PUSH1 0x40 SWAP1 KECCAK256 PUSH2 0x6FB SWAP1 DUP5 PUSH2 0x895 JUMP JUMPDEST PUSH1 0x0 PUSH2 0x5D6 DUP4 DUP4 PUSH2 0x8AA JUMP JUMPDEST PUSH1 0x0 PUSH2 0x350 DUP3 SLOAD SWAP1 JUMP JUMPDEST PUSH2 0x750 DUP3 DUP3 PUSH2 0x5DD JUMP JUMPDEST PUSH2 0x77F JUMPI PUSH1 0x40 MLOAD PUSH4 0xE2517D3F PUSH1 0xE0 SHL DUP2 MSTORE PUSH1 0x1 PUSH1 0x1 PUSH1 0xA0 SHL SUB DUP3 AND PUSH1 0x4 DUP3 ADD MSTORE PUSH1 0x24 DUP2 ADD DUP4 SWAP1 MSTORE PUSH1 0x44 ADD PUSH2 0x37D JUMP JUMPDEST POP POP JUMP JUMPDEST PUSH1 0x0 PUSH2 0x78F DUP4 DUP4 PUSH2 0x5DD JUMP JUMPDEST PUSH2 0x80D JUMPI PUSH1 0x0 DUP4 DUP2 MSTORE PUSH1 0x20 DUP2 DUP2 MSTORE PUSH1 0x40 DUP1 DUP4 KECCAK256 PUSH1 0x1 PUSH1 0x1 PUSH1 0xA0 SHL SUB DUP7 AND DUP5 MSTORE SWAP1 SWAP2 MSTORE SWAP1 KECCAK256 DUP1 SLOAD PUSH1 0xFF NOT AND PUSH1 0x1 OR SWAP1 SSTORE PUSH2 0x7C5 CALLER SWAP1 JUMP JUMPDEST PUSH1 0x1 PUSH1 0x1 PUSH1 0xA0 SHL SUB AND DUP3 PUSH1 0x1 PUSH1 0x1 PUSH1 0xA0 SHL SUB AND DUP5 PUSH32 0x2F8788117E7EFF1D82E926EC794901D17C78024A50270940304540A733656F0D PUSH1 0x40 MLOAD PUSH1 0x40 MLOAD DUP1 SWAP2 SUB SWAP1 LOG4 POP PUSH1 0x1 PUSH2 0x350 JUMP JUMPDEST POP PUSH1 0x0 PUSH2 0x350 JUMP JUMPDEST PUSH1 0x0 PUSH2 0x5D6 DUP4 PUSH1 0x1 PUSH1 0x1 PUSH1 0xA0 SHL SUB DUP5 AND PUSH2 0x8D4 JUMP JUMPDEST PUSH1 0x0 PUSH2 0x836 DUP4 DUP4 PUSH2 0x5DD JUMP JUMPDEST ISZERO PUSH2 0x80D JUMPI PUSH1 0x0 DUP4 DUP2 MSTORE PUSH1 0x20 DUP2 DUP2 MSTORE PUSH1 0x40 DUP1 DUP4 KECCAK256 PUSH1 0x1 PUSH1 0x1 PUSH1 0xA0 SHL SUB DUP7 AND DUP1 DUP6 MSTORE SWAP3 MSTORE DUP1 DUP4 KECCAK256 DUP1 SLOAD PUSH1 0xFF NOT AND SWAP1 SSTORE MLOAD CALLER SWAP3 DUP7 SWAP2 PUSH32 0xF6391F5C32D9C69D2A47EA670B442974B53935D1EDC7FD64EB21E047A839171B SWAP2 SWAP1 LOG4 POP PUSH1 0x1 PUSH2 0x350 JUMP JUMPDEST PUSH1 0x0 PUSH2 0x5D6 DUP4 PUSH1 0x1 PUSH1 0x1 PUSH1 0xA0 SHL SUB DUP5 AND PUSH2 0x91B JUMP JUMPDEST PUSH1 0x0 DUP3 PUSH1 0x0 ADD DUP3 DUP2 SLOAD DUP2 LT PUSH2 0x8C1 JUMPI PUSH2 0x8C1 PUSH2 0xB1E JUMP JUMPDEST SWAP1 PUSH1 0x0 MSTORE PUSH1 0x20 PUSH1 0x0 KECCAK256 ADD SLOAD SWAP1 POP SWAP3 SWAP2 POP POP JUMP JUMPDEST PUSH1 0x0 DUP2 DUP2 MSTORE PUSH1 0x1 DUP4 ADD PUSH1 0x20 MSTORE PUSH1 0x40 DUP2 KECCAK256 SLOAD PUSH2 0x80D JUMPI POP DUP2 SLOAD PUSH1 0x1 DUP2 DUP2 ADD DUP5 SSTORE PUSH1 0x0 DUP5 DUP2 MSTORE PUSH1 0x20 DUP1 DUP3 KECCAK256 SWAP1 SWAP4 ADD DUP5 SWAP1 SSTORE DUP5 SLOAD DUP5 DUP3 MSTORE DUP3 DUP7 ADD SWAP1 SWAP4 MSTORE PUSH1 0x40 SWAP1 KECCAK256 SWAP2 SWAP1 SWAP2 SSTORE PUSH2 0x350 JUMP JUMPDEST PUSH1 0x0 DUP2 DUP2 MSTORE PUSH1 0x1 DUP4 ADD PUSH1 0x20 MSTORE PUSH1 0x40 DUP2 KECCAK256 SLOAD DUP1 ISZERO PUSH2 0xA04 JUMPI PUSH1 0x0 PUSH2 0x93F PUSH1 0x1 DUP4 PUSH2 0xB34 JUMP JUMPDEST DUP6 SLOAD SWAP1 SWAP2 POP PUSH1 0x0 SWAP1 PUSH2 0x953 SWAP1 PUSH1 0x1 SWAP1 PUSH2 0xB34 JUMP JUMPDEST SWAP1 POP DUP1 DUP3 EQ PUSH2 0x9B8 JUMPI PUSH1 0x0 DUP7 PUSH1 0x0 ADD DUP3 DUP2 SLOAD DUP2 LT PUSH2 0x973 JUMPI PUSH2 0x973 PUSH2 0xB1E JUMP JUMPDEST SWAP1 PUSH1 0x0 MSTORE PUSH1 0x20 PUSH1 0x0 KECCAK256 ADD SLOAD SWAP1 POP DUP1 DUP8 PUSH1 0x0 ADD DUP5 DUP2 SLOAD DUP2 LT PUSH2 0x996 JUMPI PUSH2 0x996 PUSH2 0xB1E JUMP JUMPDEST PUSH1 0x0 SWAP2 DUP3 MSTORE PUSH1 0x20 DUP1 DUP4 KECCAK256 SWAP1 SWAP2 ADD SWAP3 SWAP1 SWAP3 SSTORE SWAP2 DUP3 MSTORE PUSH1 0x1 DUP9 ADD SWAP1 MSTORE PUSH1 0x40 SWAP1 KECCAK256 DUP4 SWAP1 SSTORE JUMPDEST DUP6 SLOAD DUP7 SWAP1 DUP1 PUSH2 0x9C9 JUMPI PUSH2 0x9C9 PUSH2 0xB55 JUMP JUMPDEST PUSH1 0x1 SWAP1 SUB DUP2 DUP2 SWAP1 PUSH1 0x0 MSTORE PUSH1 0x20 PUSH1 0x0 KECCAK256 ADD PUSH1 0x0 SWAP1 SSTORE SWAP1 SSTORE DUP6 PUSH1 0x1 ADD PUSH1 0x0 DUP7 DUP2 MSTORE PUSH1 0x20 ADD SWAP1 DUP2 MSTORE PUSH1 0x20 ADD PUSH1 0x0 KECCAK256 PUSH1 0x0 SWAP1 SSTORE PUSH1 0x1 SWAP4 POP POP POP POP PUSH2 0x350 JUMP JUMPDEST PUSH1 0x0 SWAP2 POP POP PUSH2 0x350 JUMP JUMPDEST PUSH1 0x0 PUSH1 0x20 DUP3 DUP5 SUB SLT ISZERO PUSH2 0xA20 JUMPI PUSH1 0x0 DUP1 REVERT JUMPDEST DUP2 CALLDATALOAD PUSH1 0x1 PUSH1 0x1 PUSH1 0xE0 SHL SUB NOT DUP2 AND DUP2 EQ PUSH2 0x5D6 JUMPI PUSH1 0x0 DUP1 REVERT JUMPDEST DUP1 CALLDATALOAD PUSH1 0x1 PUSH1 0x1 PUSH1 0xA0 SHL SUB DUP2 AND DUP2 EQ PUSH2 0xA4F JUMPI PUSH1 0x0 DUP1 REVERT JUMPDEST SWAP2 SWAP1 POP JUMP JUMPDEST PUSH1 0x0 PUSH1 0x20 DUP3 DUP5 SUB SLT ISZERO PUSH2 0xA66 JUMPI PUSH1 0x0 DUP1 REVERT JUMPDEST PUSH2 0x5D6 DUP3 PUSH2 0xA38 JUMP JUMPDEST PUSH1 0x0 PUSH1 0x20 DUP3 DUP5 SUB SLT ISZERO PUSH2 0xA81 JUMPI PUSH1 0x0 DUP1 REVERT JUMPDEST POP CALLDATALOAD SWAP2 SWAP1 POP JUMP JUMPDEST PUSH1 0x0 DUP1 PUSH1 0x40 DUP4 DUP6 SUB SLT ISZERO PUSH2 0xA9B JUMPI PUSH1 0x0 DUP1 REVERT JUMPDEST DUP3 CALLDATALOAD SWAP2 POP PUSH2 0xAAB PUSH1 0x20 DUP5 ADD PUSH2 0xA38 JUMP JUMPDEST SWAP1 POP SWAP3 POP SWAP3 SWAP1 POP JUMP JUMPDEST PUSH1 0x0 DUP1 PUSH1 0x40 DUP4 DUP6 SUB SLT ISZERO PUSH2 0xAC7 JUMPI PUSH1 0x0 DUP1 REVERT JUMPDEST POP POP DUP1 CALLDATALOAD SWAP3 PUSH1 0x20 SWAP1 SWAP2 ADD CALLDATALOAD SWAP2 POP JUMP JUMPDEST PUSH1 0x20 DUP1 DUP3 MSTORE PUSH1 0x28 SWAP1 DUP3 ADD MSTORE PUSH32 0x43616C6C657220646F6573206E6F742068617320612044454641554C545F4144 PUSH1 0x40 DUP3 ADD MSTORE PUSH8 0x4D494E5F524F4C45 PUSH1 0xC0 SHL PUSH1 0x60 DUP3 ADD MSTORE PUSH1 0x80 ADD SWAP1 JUMP JUMPDEST PUSH4 0x4E487B71 PUSH1 0xE0 SHL PUSH1 0x0 MSTORE PUSH1 0x32 PUSH1 0x4 MSTORE PUSH1 0x24 PUSH1 0x0 REVERT JUMPDEST DUP2 DUP2 SUB DUP2 DUP2 GT ISZERO PUSH2 0x350 JUMPI PUSH4 0x4E487B71 PUSH1 0xE0 SHL PUSH1 0x0 MSTORE PUSH1 0x11 PUSH1 0x4 MSTORE PUSH1 0x24 PUSH1 0x0 REVERT JUMPDEST PUSH4 0x4E487B71 PUSH1 0xE0 SHL PUSH1 0x0 MSTORE PUSH1 0x31 PUSH1 0x4 MSTORE PUSH1 0x24 PUSH1 0x0 REVERT INVALID LOG2 PUSH5 0x6970667358 0x22 SLT KECCAK256 0xAF SWAP2 0xC4 PUSH18 0xCF448BE97A21A58B4B11B0BEEBE33D519C43 BASEFEE ORIGIN 0x29 SWAP14 PUSH24 0x85663BD54064736F6C634300081400330000000000000000 "},"gasEstimates":{"creation":{"codeDepositCost":"595400","executionCost":"632","totalCost":"596032"},"external":{"BURNER_ROLE()":"240","DEFAULT_ADMIN_ROLE()":"306","MINTER_ROLE()":"261","PAUSER_ROLE()":"305","getRoleAdmin(bytes32)":"2559","getRoleMember(bytes32,uint256)":"infinite","getRoleMemberCount(bytes32)":"infinite","grantAdmin(address)":"infinite","grantBurner(address)":"infinite","grantMinter(address)":"infinite","grantPauser(address)":"infinite","grantRole(bytes32,address)":"infinite","hasRole(bytes32,address)":"2740","renounceRole(bytes32,address)":"infinite","revokeAdmin(address)":"infinite","revokeBurner(address)":"infinite","revokeMinter(address)":"infinite","revokePauser(address)":"infinite","revokeRole(bytes32,address)":"infinite","supportsInterface(bytes4)":"infinite"}},"methodIdentifiers":{"BURNER_ROLE()":"282c51f3","DEFAULT_ADMIN_ROLE()":"a217fddf","MINTER_ROLE()":"d5391393","PAUSER_ROLE()":"e63ab1e9","getRoleAdmin(bytes32)":"248a9ca3","getRoleMember(bytes32,uint256)":"9010d07c","getRoleMemberCount(bytes32)":"ca15c873","grantAdmin(address)":"35bb3e16","grantBurner(address)":"10511f96","grantMinter(address)":"261707fa","grantPauser(address)":"09c1d95f","grantRole(bytes32,address)":"2f2ff15d","hasRole(bytes32,address)":"91d14854","renounceRole(bytes32,address)":"36568abe","revokeAdmin(address)":"2d345670","revokeBurner(address)":"0900cc33","revokeMinter(address)":"cfbd4885","revokePauser(address)":"7fe76df0","revokeRole(bytes32,address)":"d547741f","supportsInterface(bytes4)":"01ffc9a7"}},"storageLayout":{"storage":[{"astId":26,"contract":"contracts/PalmToken.sol:ACL","label":"_roles","offset":0,"slot":"0","type":"t_mapping(t_bytes32,t_struct(RoleData)21_storage)"},{"astId":400,"contract":"contracts/PalmToken.sol:ACL","label":"_roleMembers","offset":0,"slot":"1","type":"t_mapping(t_bytes32,t_struct(AddressSet)4556_storage)"}],"types":{"t_address":{"encoding":"inplace","label":"address","numberOfBytes":"20"},"t_array(t_bytes32)dyn_storage":{"base":"t_bytes32","encoding":"dynamic_array","label":"bytes32[]","numberOfBytes":"32"},"t_bool":{"encoding":"inplace","label":"bool","numberOfBytes":"1"},"t_bytes32":{"encoding":"inplace","label":"bytes32","numberOfBytes":"32"},"t_mapping(t_address,t_bool)":{"encoding":"mapping","key":"t_address","label":"mapping(address => bool)","numberOfBytes":"32","value":"t_bool"},"t_mapping(t_bytes32,t_struct(AddressSet)4556_storage)":{"encoding":"mapping","key":"t_bytes32","label":"mapping(bytes32 => struct EnumerableSet.AddressSet)","numberOfBytes":"32","value":"t_struct(AddressSet)4556_storage"},"t_mapping(t_bytes32,t_struct(RoleData)21_storage)":{"encoding":"mapping","key":"t_bytes32","label":"mapping(bytes32 => struct AccessControl.RoleData)","numberOfBytes":"32","value":"t_struct(RoleData)21_storage"},"t_mapping(t_bytes32,t_uint256)":{"encoding":"mapping","key":"t_bytes32","label":"mapping(bytes32 => uint256)","numberOfBytes":"32","value":"t_uint256"},"t_struct(AddressSet)4556_storage":{"encoding":"inplace","label":"struct EnumerableSet.AddressSet","members":[{"astId":4555,"contract":"contracts/PalmToken.sol:ACL","label":"_inner","offset":0,"slot":"0","type":"t_struct(Set)4241_storage"}],"numberOfBytes":"64"},"t_struct(RoleData)21_storage":{"encoding":"inplace","label":"struct AccessControl.RoleData","members":[{"astId":18,"contract":"contracts/PalmToken.sol:ACL","label":"hasRole","offset":0,"slot":"0","type":"t_mapping(t_address,t_bool)"},{"astId":20,"contract":"contracts/PalmToken.sol:ACL","label":"adminRole","offset":0,"slot":"1","type":"t_bytes32"}],"numberOfBytes":"64"},"t_struct(Set)4241_storage":{"encoding":"inplace","label":"struct EnumerableSet.Set","members":[{"astId":4236,"contract":"contracts/PalmToken.sol:ACL","label":"_values","offset":0,"slot":"0","type":"t_array(t_bytes32)dyn_storage"},{"astId":4240,"contract":"contracts/PalmToken.sol:ACL","label":"_positions","offset":0,"slot":"1","type":"t_mapping(t_bytes32,t_uint256)"}],"numberOfBytes":"64"},"t_uint256":{"encoding":"inplace","label":"uint256","numberOfBytes":"32"}}},"userdoc":{"kind":"user","methods":{},"version":1}}}}