{
  "_format": "hh-sol-artifact-1",
  "contractName": "ACL",
  "sourceName": "contracts/PalmToken.sol",
  "abi": [
    {
      "inputs": [],
      "name": "AccessControlBadConfirmation",
      "type": "error"
    },
    {
      "inputs": [
        {
          "internalType": "address",
          "name": "account",
          "type": "address"
        },
        {
          "internalType": "bytes32",
          "name": "neededRole",
          "type": "bytes32"
        }
      ],
      "name": "AccessControlUnauthorizedAccount",
      "type": "error"
    },
    {
      "anonymous": false,
      "inputs": [
        {
          "indexed": true,
          "internalType": "bytes32",
          "name": "role",
          "type": "bytes32"
        },
        {
          "indexed": true,
          "internalType": "bytes32",
          "name": "previousAdminRole",
          "type": "bytes32"
        },
        {
          "indexed": true,
          "internalType": "bytes32",
          "name": "newAdminRole",
          "type": "bytes32"
        }
      ],
      "name": "RoleAdminChanged",
      "type": "event"
    },
    {
      "anonymous": false,
      "inputs": [
        {
          "indexed": true,
          "internalType": "bytes32",
          "name": "role",
          "type": "bytes32"
        },
        {
          "indexed": true,
          "internalType": "address",
          "name": "account",
          "type": "address"
        },
        {
          "indexed": true,
          "internalType": "address",
          "name": "sender",
          "type": "address"
        }
      ],
      "name": "RoleGranted",
      "type": "event"
    },
    {
      "anonymous": false,
      "inputs": [
        {
          "indexed": true,
          "internalType": "bytes32",
          "name": "role",
          "type": "bytes32"
        },
        {
          "indexed": true,
          "internalType": "address",
          "name": "account",
          "type": "address"
        },
        {
          "indexed": true,
          "internalType": "address",
          "name": "sender",
          "type": "address"
        }
      ],
      "name": "RoleRevoked",
      "type": "event"
    },
    {
      "inputs": [],
      "name": "BURNER_ROLE",
      "outputs": [
        {
          "internalType": "bytes32",
          "name": "",
          "type": "bytes32"
        }
      ],
      "stateMutability": "view",
      "type": "function"
    },
    {
      "inputs": [],
      "name": "DEFAULT_ADMIN_ROLE",
      "outputs": [
        {
          "internalType": "bytes32",
          "name": "",
          "type": "bytes32"
        }
      ],
      "stateMutability": "view",
      "type": "function"
    },
    {
      "inputs": [],
      "name": "MINTER_ROLE",
      "outputs": [
        {
          "internalType": "bytes32",
          "name": "",
          "type": "bytes32"
        }
      ],
      "stateMutability": "view",
      "type": "function"
    },
    {
      "inputs": [],
      "name": "PAUSER_ROLE",
      "outputs": [
        {
          "internalType": "bytes32",
          "name": "",
          "type": "bytes32"
        }
      ],
      "stateMutability": "view",
      "type": "function"
    },
    {
      "inputs": [
        {
          "internalType": "bytes32",
          "name": "role",
          "type": "bytes32"
        }
      ],
      "name": "getRoleAdmin",
      "outputs": [
        {
          "internalType": "bytes32",
          "name": "",
          "type": "bytes32"
        }
      ],
      "stateMutability": "view",
      "type": "function"
    },
    {
      "inputs": [
        {
          "internalType": "bytes32",
          "name": "role",
          "type": "bytes32"
        },
        {
          "internalType": "uint256",
          "name": "index",
          "type": "uint256"
        }
      ],
      "name": "getRoleMember",
      "outputs": [
        {
          "internalType": "address",
          "name": "",
          "type": "address"
        }
      ],
      "stateMutability": "view",
      "type": "function"
    },
    {
      "inputs": [
        {
          "internalType": "bytes32",
          "name": "role",
          "type": "bytes32"
        }
      ],
      "name": "getRoleMemberCount",
      "outputs": [
        {
          "internalType": "uint256",
          "name": "",
          "type": "uint256"
        }
      ],
      "stateMutability": "view",
      "type": "function"
    },
    {
      "inputs": [
        {
          "internalType": "address",
          "name": "admin",
          "type": "address"
        }
      ],
      "name": "grantAdmin",
      "outputs": [],
      "stateMutability": "nonpayable",
      "type": "function"
    },
    {
      "inputs": [
        {
          "internalType": "address",
          "name": "burner",
          "type": "address"
        }
      ],
      "name": "grantBurner",
      "outputs": [],
      "stateMutability": "nonpayable",
      "type": "function"
    },
    {
      "inputs": [
        {
          "internalType": "address",
          "name": "minter",
          "type": "address"
        }
      ],
      "name": "grantMinter",
      "outputs": [],
      "stateMutability": "nonpayable",
      "type": "function"
    },
    {
      "inputs": [
        {
          "internalType": "address",
          "name": "pauser",
          "type": "address"
        }
      ],
      "name": "grantPauser",
      "outputs": [],
      "stateMutability": "nonpayable",
      "type": "function"
    },
    {
      "inputs": [
        {
          "internalType": "bytes32",
          "name": "role",
          "type": "bytes32"
        },
        {
          "internalType": "address",
          "name": "account",
          "type": "address"
        }
      ],
      "name": "grantRole",
      "outputs": [],
      "stateMutability": "nonpayable",
      "type": "function"
    },
    {
      "inputs": [
        {
          "internalType": "bytes32",
          "name": "role",
          "type": "bytes32"
        },
        {
          "internalType": "address",
          "name": "account",
          "type": "address"
        }
      ],
      "name": "hasRole",
      "outputs": [
        {
          "internalType": "bool",
          "name": "",
          "type": "bool"
        }
      ],
      "stateMutability": "view",
      "type": "function"
    },
    {
      "inputs": [
        {
          "internalType": "bytes32",
          "name": "role",
          "type": "bytes32"
        },
        {
          "internalType": "address",
          "name": "callerConfirmation",
          "type": "address"
        }
      ],
      "name": "renounceRole",
      "outputs": [],
      "stateMutability": "nonpayable",
      "type": "function"
    },
    {
      "inputs": [
        {
          "internalType": "address",
          "name": "admin",
          "type": "address"
        }
      ],
      "name": "revokeAdmin",
      "outputs": [],
      "stateMutability": "nonpayable",
      "type": "function"
    },
    {
      "inputs": [
        {
          "internalType": "address",
          "name": "burner",
          "type": "address"
        }
      ],
      "name": "revokeBurner",
      "outputs": [],
      "stateMutability": "nonpayable",
      "type": "function"
    },
    {
      "inputs": [
        {
          "internalType": "address",
          "name": "minter",
          "type": "address"
        }
      ],
      "name": "revokeMinter",
      "outputs": [],
      "stateMutability": "nonpayable",
      "type": "function"
    },
    {
      "inputs": [
        {
          "internalType": "address",
          "name": "pauser",
          "type": "address"
        }
      ],
      "name": "revokePauser",
      "outputs": [],
      "stateMutability": "nonpayable",
      "type": "function"
    },
    {
      "inputs": [
        {
          "internalType": "bytes32",
          "name": "role",
          "type": "bytes32"
        },
        {
          "internalType": "address",
          "name": "account",
          "type": "address"
        }
      ],
      "name": "revokeRole",
      "outputs": [],
      "stateMutability": "nonpayable",
      "type": "function"
    },
    {
      "inputs": [
        {
          "internalType": "bytes4",
          "name": "interfaceId",
          "type": "bytes4"
        }
      ],
      "name": "supportsInterface",
      "outputs": [
        {
          "internalType": "bool",
          "name": "",
          "type": "bool"
        }
      ],
      "stateMutability": "view",
      "type": "function"
    }
  ],
  "bytecode": "0x608060405234801561001057600080fd5b50610ba1806100206000396000f3fe608060405234801561001057600080fd5b506004361061012c5760003560e01c806336568abe116100ad578063ca15c87311610071578063ca15c873146102a4578063cfbd4885146102b7578063d5391393146102ca578063d547741f146102f1578063e63ab1e91461030457600080fd5b806336568abe146102385780637fe76df01461024b5780639010d07c1461025e57806391d1485414610289578063a217fddf1461029c57600080fd5b8063261707fa116100f4578063261707fa146101c5578063282c51f3146101d85780632d345670146101ff5780632f2ff15d1461021257806335bb3e161461022557600080fd5b806301ffc9a7146101315780630900cc331461015957806309c1d95f1461016e57806310511f9614610181578063248a9ca314610194575b600080fd5b61014461013f366004610a0e565b61032b565b60405190151581526020015b60405180910390f35b61016c610167366004610a54565b610356565b005b61016c61017c366004610a54565b6103b3565b61016c61018f366004610a54565b610404565b6101b76101a2366004610a6f565b60009081526020819052604090206001015490565b604051908152602001610150565b61016c6101d3366004610a54565b610455565b6101b77f3c11d16cbaffd01df69ce1c404f6340ee057498f5f00246190ea54220576a84881565b61016c61020d366004610a54565b6104a6565b61016c610220366004610a88565b6104d8565b61016c610233366004610a54565b610503565b61016c610246366004610a88565b610535565b61016c610259366004610a54565b61056d565b61027161026c366004610ab4565b6105be565b6040516001600160a01b039091168152602001610150565b610144610297366004610a88565b6105dd565b6101b7600081565b6101b76102b2366004610a6f565b610606565b61016c6102c5366004610a54565b61061d565b6101b77f9f2df0fed2c77648de5860a4cc508cd0818c85b8b8a1ab4ceeef8d981c8956a681565b61016c6102ff366004610a88565b61066a565b6101b77f65d7a28e3265b37a6474929f336521b332c1681b933f6cb9f3376673440d862a81565b60006001600160e01b03198216635a05180f60e01b148061035057506103508261068f565b92915050565b6103616000336105dd565b6103865760405162461bcd60e51b815260040161037d90610ad6565b60405180910390fd5b6103b07f3c11d16cbaffd01df69ce1c404f6340ee057498f5f00246190ea54220576a8488261066a565b50565b6103be6000336105dd565b6103da5760405162461bcd60e51b815260040161037d90610ad6565b6103b07f65d7a28e3265b37a6474929f336521b332c1681b933f6cb9f3376673440d862a826104d8565b61040f6000336105dd565b61042b5760405162461bcd60e51b815260040161037d90610ad6565b6103b07f3c11d16cbaffd01df69ce1c404f6340ee057498f5f00246190ea54220576a848826104d8565b6104606000336105dd565b61047c5760405162461bcd60e51b815260040161037d90610ad6565b6103b07f9f2df0fed2c77648de5860a4cc508cd0818c85b8b8a1ab4ceeef8d981c8956a6826104d8565b6104b16000336105dd565b6104cd5760405162461bcd60e51b815260040161037d90610ad6565b6103b060008261066a565b6000828152602081905260409020600101546104f3816106c4565b6104fd83836106ce565b50505050565b61050e6000336105dd565b61052a5760405162461bcd60e51b815260040161037d90610ad6565b6103b06000826104d8565b6001600160a01b038116331461055e5760405163334bd91960e11b815260040160405180910390fd5b6105688282610703565b505050565b6105786000336105dd565b6105945760405162461bcd60e51b815260040161037d90610ad6565b6103b07f65d7a28e3265b37a6474929f336521b332c1681b933f6cb9f3376673440d862a8261066a565b60008281526001602052604081206105d69083610730565b9392505050565b6000918252602082815260408084206001600160a01b0393909316845291905290205460ff1690565b60008181526001602052604081206103509061073c565b6106286000336105dd565b6106445760405162461bcd60e51b815260040161037d90610ad6565b6103b07f9f2df0fed2c77648de5860a4cc508cd0818c85b8b8a1ab4ceeef8d981c8956a6825b600082815260208190526040902060010154610685816106c4565b6104fd8383610703565b60006001600160e01b03198216637965db0b60e01b148061035057506301ffc9a760e01b6001600160e01b0319831614610350565b6103b08133610746565b6000806106db8484610783565b905080156105d65760008481526001602052604090206106fb9084610815565b509392505050565b600080610710848461082a565b905080156105d65760008481526001602052604090206106fb9084610895565b60006105d683836108aa565b6000610350825490565b61075082826105dd565b61077f5760405163e2517d3f60e01b81526001600160a01b03821660048201526024810183905260440161037d565b5050565b600061078f83836105dd565b61080d576000838152602081815260408083206001600160a01b03861684529091529020805460ff191660011790556107c53390565b6001600160a01b0316826001600160a01b0316847f2f8788117e7eff1d82e926ec794901d17c78024a50270940304540a733656f0d60405160405180910390a4506001610350565b506000610350565b60006105d6836001600160a01b0384166108d4565b600061083683836105dd565b1561080d576000838152602081815260408083206001600160a01b0386168085529252808320805460ff1916905551339286917ff6391f5c32d9c69d2a47ea670b442974b53935d1edc7fd64eb21e047a839171b9190a4506001610350565b60006105d6836001600160a01b03841661091b565b60008260000182815481106108c1576108c1610b1e565b9060005260206000200154905092915050565b600081815260018301602052604081205461080d57508154600181810184556000848152602080822090930184905584548482528286019093526040902091909155610350565b60008181526001830160205260408120548015610a0457600061093f600183610b34565b855490915060009061095390600190610b34565b90508082146109b857600086600001828154811061097357610973610b1e565b906000526020600020015490508087600001848154811061099657610996610b1e565b6000918252602080832090910192909255918252600188019052604090208390555b85548690806109c9576109c9610b55565b600190038181906000526020600020016000905590558560010160008681526020019081526020016000206000905560019350505050610350565b6000915050610350565b600060208284031215610a2057600080fd5b81356001600160e01b0319811681146105d657600080fd5b80356001600160a01b0381168114610a4f57600080fd5b919050565b600060208284031215610a6657600080fd5b6105d682610a38565b600060208284031215610a8157600080fd5b5035919050565b60008060408385031215610a9b57600080fd5b82359150610aab60208401610a38565b90509250929050565b60008060408385031215610ac757600080fd5b50508035926020909101359150565b60208082526028908201527f43616c6c657220646f6573206e6f742068617320612044454641554c545f41446040820152674d494e5f524f4c4560c01b606082015260800190565b634e487b7160e01b600052603260045260246000fd5b8181038181111561035057634e487b7160e01b600052601160045260246000fd5b634e487b7160e01b600052603160045260246000fdfea2646970667358221220af91c471cf448be97a21a58b4b11b0beebe33d519c434832299d7785663bd54064736f6c63430008140033",
  "linkReferences": {},
  "deployedLinkReferences": {}
}